{"abi":[{"type":"constructor","inputs":[{"name":"owner","type":"address","internalType":"address"}],"stateMutability":"nonpayable"},{"type":"function","name":"ankrFlow","inputs":[],"outputs":[{"name":"","type":"address","internalType":"address"}],"stateMutability":"view"},{"type":"function","name":"deployAssets","inputs":[],"outputs":[],"stateMutability":"nonpayable"},{"type":"function","name":"fundUser","inputs":[{"name":"user","type":"address","internalType":"address"}],"outputs":[],"stateMutability":"nonpayable"},{"type":"function","name":"getAssets","inputs":[],"outputs":[{"name":"_wflow","type":"address","internalType":"address"},{"name":"_usdc","type":"address","internalType":"address"},{"name":"_weth","type":"address","internalType":"address"},{"name":"_ankrFlow","type":"address","internalType":"address"},{"name":"_trump","type":"address","internalType":"address"}],"stateMutability":"view"},{"type":"function","name":"owner","inputs":[],"outputs":[{"name":"","type":"address","internalType":"address"}],"stateMutability":"view"},{"type":"function","name":"renounceOwnership","inputs":[],"outputs":[],"stateMutability":"nonpayable"},{"type":"function","name":"transferOwnership","inputs":[{"name":"newOwner","type":"address","internalType":"address"}],"outputs":[],"stateMutability":"nonpayable"},{"type":"function","name":"trump","inputs":[],"outputs":[{"name":"","type":"address","internalType":"address"}],"stateMutability":"view"},{"type":"function","name":"usdc","inputs":[],"outputs":[{"name":"","type":"address","internalType":"address"}],"stateMutability":"view"},{"type":"function","name":"weth","inputs":[],"outputs":[{"name":"","type":"address","internalType":"address"}],"stateMutability":"view"},{"type":"function","name":"wflow","inputs":[],"outputs":[{"name":"","type":"address","internalType":"address"}],"stateMutability":"view"},{"type":"event","name":"AssetDeployed","inputs":[{"name":"name","type":"string","indexed":false,"internalType":"string"},{"name":"asset","type":"address","indexed":true,"internalType":"address"}],"anonymous":false},{"type":"event","name":"OwnershipTransferred","inputs":[{"name":"previousOwner","type":"address","indexed":true,"internalType":"address"},{"name":"newOwner","type":"address","indexed":true,"internalType":"address"}],"anonymous":false},{"type":"error","name":"OwnableInvalidOwner","inputs":[{"name":"owner","type":"address","internalType":"address"}]},{"type":"error","name":"OwnableUnauthorizedAccount","inputs":[{"name":"account","type":"address","internalType":"address"}]}],"bytecode":{"object":"0x608060405234801561000f575f80fd5b506040516151b43803806151b483398101604081905261002e916100bb565b806001600160a01b03811661005c57604051631e4fbdf760e01b81525f600482015260240160405180910390fd5b6100658161006c565b50506100e8565b5f80546001600160a01b038381166001600160a01b0319831681178455604051919092169283917f8be0079c531659141344cd1fd0a4f28419497f9722a3daafe3b4186f6b6457e09190a35050565b5f602082840312156100cb575f80fd5b81516001600160a01b03811681146100e1575f80fd5b9392505050565b6150bf806100f55f395ff3fe608060405234801561000f575f80fd5b50600436106100a6575f3560e01c806367e4ac2c1161006e57806367e4ac2c1461011d578063715018a6146101675780638da5cb5b1461016f578063afb1ab481461017f578063c29ec45914610192578063f2fde38b146101a5575f80fd5b8063037897d6146100aa57806326c40c68146100b45780633e413bee146100c75780633fc8cef3146100f757806355292b8e1461010a575b5f80fd5b6100b26101b8565b005b6100b26100c2366004610a9f565b6104d1565b6002546100da906001600160a01b031681565b6040516001600160a01b0390911681526020015b60405180910390f35b6003546100da906001600160a01b031681565b6001546100da906001600160a01b031681565b600154600254600354600454600554604080516001600160a01b0396871681529486166020860152928516928401929092528316606083015291909116608082015260a0016100ee565b6100b2610996565b5f546001600160a01b03166100da565b6004546100da906001600160a01b031681565b6005546100da906001600160a01b031681565b6100b26101b3366004610a9f565b6109a9565b6101c06109e3565b5f546001600160a01b03166040516101d790610a5e565b6001600160a01b039091168152602001604051809103905ff080158015610200573d5f803e3d5ffd5b50600180546001600160a01b03929092166001600160a01b0319909216821790556040515f8051602061506a833981519152906102569060208082526005908201526457464c4f5760d81b604082015260600190565b60405180910390a25f546001600160a01b031660405161027590610a6b565b6001600160a01b039091168152602001604051809103905ff08015801561029e573d5f803e3d5ffd5b50600280546001600160a01b03929092166001600160a01b0319909216821790556040515f8051602061506a833981519152906102f3906020808252600490820152635553444360e01b604082015260600190565b60405180910390a25f546001600160a01b031660405161031290610a78565b6001600160a01b039091168152602001604051809103905ff08015801561033b573d5f803e3d5ffd5b50600380546001600160a01b03929092166001600160a01b0319909216821790556040515f8051602061506a83398151915290610390906020808252600490820152630ae8aa8960e31b604082015260600190565b60405180910390a25f546001600160a01b03166040516103af90610a85565b6001600160a01b039091168152602001604051809103905ff0801580156103d8573d5f803e3d5ffd5b50600480546001600160a01b03929092166001600160a01b0319909216821790556040515f8051602061506a8339815191529061043190602080825260089082015267616e6b72464c4f5760c01b604082015260600190565b60405180910390a25f546001600160a01b031660405161045090610a92565b6001600160a01b039091168152602001604051809103905ff080158015610479573d5f803e3d5ffd5b50600580546001600160a01b0319166001600160a01b039290921691821781556040805160208082528101929092526405452554d560dc1b908201525f8051602061506a8339815191529060600160405180910390a2565b6001546001600160a01b03166105245760405162461bcd60e51b8152602060048201526013602482015272105cdcd95d1cc81b9bdd0819195c1b1bde5959606a1b60448201526064015b60405180910390fd5b60015f9054906101000a90046001600160a01b03166001600160a01b031663de5f72fd6040518163ffffffff1660e01b81526004015f604051808303815f87803b158015610570575f80fd5b505af1158015610582573d5f803e3d5ffd5b5050505060025f9054906101000a90046001600160a01b03166001600160a01b031663de5f72fd6040518163ffffffff1660e01b81526004015f604051808303815f87803b1580156105d2575f80fd5b505af11580156105e4573d5f803e3d5ffd5b5050505060035f9054906101000a90046001600160a01b03166001600160a01b031663de5f72fd6040518163ffffffff1660e01b81526004015f604051808303815f87803b158015610634575f80fd5b505af1158015610646573d5f803e3d5ffd5b5050600480546040805163de5f72fd60e01b815290516001600160a01b03909216945063de5f72fd9350808301925f929182900301818387803b15801561068b575f80fd5b505af115801561069d573d5f803e3d5ffd5b5050505060055f9054906101000a90046001600160a01b03166001600160a01b031663de5f72fd6040518163ffffffff1660e01b81526004015f604051808303815f87803b1580156106ed575f80fd5b505af11580156106ff573d5f803e3d5ffd5b505050506107145f546001600160a01b031690565b6001600160a01b031633036109935760015460405163a9059cbb60e01b81526001600160a01b038381166004830152683635c9adc5dea0000060248301529091169063a9059cbb906044016020604051808303815f875af115801561077b573d5f803e3d5ffd5b505050506040513d601f19601f8201168201806040525081019061079f9190610acc565b5060025460405163a9059cbb60e01b81526001600160a01b0383811660048301526402540be40060248301529091169063a9059cbb906044016020604051808303815f875af11580156107f4573d5f803e3d5ffd5b505050506040513d601f19601f820116820180604052508101906108189190610acc565b5060035460405163a9059cbb60e01b81526001600160a01b038381166004830152674563918244f4000060248301529091169063a9059cbb906044016020604051808303815f875af1158015610870573d5f803e3d5ffd5b505050506040513d601f19601f820116820180604052508101906108949190610acc565b506004805460405163a9059cbb60e01b81526001600160a01b0384811693820193909352681b1ae4d6e2ef500000602482015291169063a9059cbb906044016020604051808303815f875af11580156108ef573d5f803e3d5ffd5b505050506040513d601f19601f820116820180604052508101906109139190610acc565b5060055460405163a9059cbb60e01b81526001600160a01b03838116600483015269152d02c7e14af680000060248301529091169063a9059cbb906044016020604051808303815f875af115801561096d573d5f803e3d5ffd5b505050506040513d601f19601f820116820180604052508101906109919190610acc565b505b50565b61099e6109e3565b6109a75f610a0f565b565b6109b16109e3565b6001600160a01b0381166109da57604051631e4fbdf760e01b81525f600482015260240161051b565b61099381610a0f565b5f546001600160a01b031633146109a75760405163118cdaa760e01b815233600482015260240161051b565b5f80546001600160a01b038381166001600160a01b0319831681178455604051919092169283917f8be0079c531659141344cd1fd0a4f28419497f9722a3daafe3b4186f6b6457e09190a35050565b610ec380610aec83390190565b610cec806119af83390190565b610cfc8061269b83390190565b610fd58061339783390190565b610cfe8061436c83390190565b5f60208284031215610aaf575f80fd5b81356001600160a01b0381168114610ac5575f80fd5b9392505050565b5f60208284031215610adc575f80fd5b81518015158114610ac5575f80fdfe608060405234801561000f575f80fd5b50604051610ec3380380610ec383398101604081905261002e91610292565b806040518060400160405280600c81526020016b5772617070656420466c6f7760a01b8152506040518060400160405280600581526020016457464c4f5760d81b81525081600390816100819190610357565b50600461008e8282610357565b5050506001600160a01b0381166100bf57604051631e4fbdf760e01b81525f60048201526024015b60405180910390fd5b6100c8816100e3565b506100dd8169d3c21bcecceda1000000610134565b50610436565b600580546001600160a01b038381166001600160a01b0319831681179093556040519116919082907f8be0079c531659141344cd1fd0a4f28419497f9722a3daafe3b4186f6b6457e0905f90a35050565b6001600160a01b03821661015d5760405163ec442f0560e01b81525f60048201526024016100b6565b6101685f838361016c565b5050565b6001600160a01b038316610196578060025f82825461018b9190610411565b909155506102069050565b6001600160a01b0383165f90815260208190526040902054818110156101e85760405163391434e360e21b81526001600160a01b038516600482015260248101829052604481018390526064016100b6565b6001600160a01b0384165f9081526020819052604090209082900390555b6001600160a01b03821661022257600280548290039055610240565b6001600160a01b0382165f9081526020819052604090208054820190555b816001600160a01b0316836001600160a01b03167fddf252ad1be2c89b69c2b068fc378daa952ba7f163c4a11628f55a4df523b3ef8360405161028591815260200190565b60405180910390a3505050565b5f602082840312156102a2575f80fd5b81516001600160a01b03811681146102b8575f80fd5b9392505050565b634e487b7160e01b5f52604160045260245ffd5b600181811c908216806102e757607f821691505b60208210810361030557634e487b7160e01b5f52602260045260245ffd5b50919050565b601f82111561035257805f5260205f20601f840160051c810160208510156103305750805b601f840160051c820191505b8181101561034f575f815560010161033c565b50505b505050565b81516001600160401b03811115610370576103706102bf565b6103848161037e84546102d3565b8461030b565b6020601f8211600181146103b6575f831561039f5750848201515b5f19600385901b1c1916600184901b17845561034f565b5f84815260208120601f198516915b828110156103e557878501518255602094850194600190920191016103c5565b508482101561040257868401515f19600387901b60f8161c191681555b50505050600190811b01905550565b8082018082111561043057634e487b7160e01b5f52601160045260245ffd5b92915050565b610a80806104435f395ff3fe6080604052600436106100f2575f3560e01c8063715018a611610087578063d0e30db011610057578063d0e30db014610298578063dd62ed3e146102a0578063de5f72fd146102e4578063f2fde38b146102f8575f80fd5b8063715018a61461022a5780638da5cb5b1461023e57806395d89b4114610265578063a9059cbb14610279575f80fd5b80632e1a7d4d116100c25780632e1a7d4d1461019d578063313ce567146101bc57806340c10f19146101d757806370a08231146101f6575f80fd5b806306fdde0314610107578063095ea7b31461013157806318160ddd1461016057806323b872dd1461017e575f80fd5b36610103576101013334610317565b005b5f80fd5b348015610112575f80fd5b5061011b610354565b60405161012891906108d9565b60405180910390f35b34801561013c575f80fd5b5061015061014b366004610929565b6103e4565b6040519015158152602001610128565b34801561016b575f80fd5b506002545b604051908152602001610128565b348015610189575f80fd5b50610150610198366004610951565b6103fd565b3480156101a8575f80fd5b506101016101b736600461098b565b610420565b3480156101c7575f80fd5b5060405160128152602001610128565b3480156101e2575f80fd5b506101016101f1366004610929565b6104a9565b348015610201575f80fd5b506101706102103660046109a2565b6001600160a01b03165f9081526020819052604090205490565b348015610235575f80fd5b506101016104bb565b348015610249575f80fd5b506005546040516001600160a01b039091168152602001610128565b348015610270575f80fd5b5061011b6104ce565b348015610284575f80fd5b50610150610293366004610929565b6104dd565b6101016104ea565b3480156102ab575f80fd5b506101706102ba3660046109c2565b6001600160a01b039182165f90815260016020908152604080832093909416825291909152205490565b3480156102ef575f80fd5b506101016104f4565b348015610303575f80fd5b506101016103123660046109a2565b610507565b6001600160a01b0382166103455760405163ec442f0560e01b81525f60048201526024015b60405180910390fd5b6103505f8383610544565b5050565b606060038054610363906109f3565b80601f016020809104026020016040519081016040528092919081815260200182805461038f906109f3565b80156103da5780601f106103b1576101008083540402835291602001916103da565b820191905f5260205f20905b8154815290600101906020018083116103bd57829003601f168201915b5050505050905090565b5f336103f181858561066a565b60019150505b92915050565b5f3361040a85828561067c565b6104158585856106f8565b506001949350505050565b335f908152602081905260409020548111156104755760405162461bcd60e51b8152602060048201526014602482015273496e73756666696369656e742062616c616e636560601b604482015260640161033c565b61047f3382610755565b604051339082156108fc029083905f818181858888f19350505050158015610350573d5f803e3d5ffd5b6104b1610789565b6103508282610317565b6104c3610789565b6104cc5f6107b6565b565b606060048054610363906109f3565b5f336103f18185856106f8565b6104cc3334610317565b6104cc33683635c9adc5dea00000610317565b61050f610789565b6001600160a01b03811661053857604051631e4fbdf760e01b81525f600482015260240161033c565b610541816107b6565b50565b6001600160a01b03831661056e578060025f8282546105639190610a2b565b909155506105de9050565b6001600160a01b0383165f90815260208190526040902054818110156105c05760405163391434e360e21b81526001600160a01b0385166004820152602481018290526044810183905260640161033c565b6001600160a01b0384165f9081526020819052604090209082900390555b6001600160a01b0382166105fa57600280548290039055610618565b6001600160a01b0382165f9081526020819052604090208054820190555b816001600160a01b0316836001600160a01b03167fddf252ad1be2c89b69c2b068fc378daa952ba7f163c4a11628f55a4df523b3ef8360405161065d91815260200190565b60405180910390a3505050565b6106778383836001610807565b505050565b6001600160a01b038381165f908152600160209081526040808320938616835292905220545f198110156106f257818110156106e457604051637dc7a0d960e11b81526001600160a01b0384166004820152602481018290526044810183905260640161033c565b6106f284848484035f610807565b50505050565b6001600160a01b03831661072157604051634b637e8f60e11b81525f600482015260240161033c565b6001600160a01b03821661074a5760405163ec442f0560e01b81525f600482015260240161033c565b610677838383610544565b6001600160a01b03821661077e57604051634b637e8f60e11b81525f600482015260240161033c565b610350825f83610544565b6005546001600160a01b031633146104cc5760405163118cdaa760e01b815233600482015260240161033c565b600580546001600160a01b038381166001600160a01b0319831681179093556040519116919082907f8be0079c531659141344cd1fd0a4f28419497f9722a3daafe3b4186f6b6457e0905f90a35050565b6001600160a01b0384166108305760405163e602df0560e01b81525f600482015260240161033c565b6001600160a01b03831661085957604051634a1406b160e11b81525f600482015260240161033c565b6001600160a01b038085165f90815260016020908152604080832093871683529290522082905580156106f257826001600160a01b0316846001600160a01b03167f8c5be1e5ebec7d5bd14f71427d1e84f3dd0314c0f7b2291e5b200ac8c7c3b925846040516108cb91815260200190565b60405180910390a350505050565b602081525f82518060208401528060208501604085015e5f604082850101526040601f19601f83011684010191505092915050565b80356001600160a01b0381168114610924575f80fd5b919050565b5f806040838503121561093a575f80fd5b6109438361090e565b946020939093013593505050565b5f805f60608486031215610963575f80fd5b61096c8461090e565b925061097a6020850161090e565b929592945050506040919091013590565b5f6020828403121561099b575f80fd5b5035919050565b5f602082840312156109b2575f80fd5b6109bb8261090e565b9392505050565b5f80604083850312156109d3575f80fd5b6109dc8361090e565b91506109ea6020840161090e565b90509250929050565b600181811c90821680610a0757607f821691505b602082108103610a2557634e487b7160e01b5f52602260045260245ffd5b50919050565b808201808211156103f757634e487b7160e01b5f52601160045260245ffdfea26469706673582212208c0d4ed6f6075df3f70fdd2f761361c85e8b5ee8b1ee16d9c098b213ebd4588664736f6c634300081a0033608060405234801561000f575f80fd5b50604051610cec380380610cec83398101604081905261002e91610288565b80604051806040016040528060088152602001672aa9a21021b7b4b760c11b815250604051806040016040528060048152602001635553444360e01b815250816003908161007c919061034d565b506004610089828261034d565b5050506001600160a01b0381166100ba57604051631e4fbdf760e01b81525f60048201526024015b60405180910390fd5b6100c3816100d9565b506100d38164e8d4a5100061012a565b5061042c565b600580546001600160a01b038381166001600160a01b0319831681179093556040519116919082907f8be0079c531659141344cd1fd0a4f28419497f9722a3daafe3b4186f6b6457e0905f90a35050565b6001600160a01b0382166101535760405163ec442f0560e01b81525f60048201526024016100b1565b61015e5f8383610162565b5050565b6001600160a01b03831661018c578060025f8282546101819190610407565b909155506101fc9050565b6001600160a01b0383165f90815260208190526040902054818110156101de5760405163391434e360e21b81526001600160a01b038516600482015260248101829052604481018390526064016100b1565b6001600160a01b0384165f9081526020819052604090209082900390555b6001600160a01b03821661021857600280548290039055610236565b6001600160a01b0382165f9081526020819052604090208054820190555b816001600160a01b0316836001600160a01b03167fddf252ad1be2c89b69c2b068fc378daa952ba7f163c4a11628f55a4df523b3ef8360405161027b91815260200190565b60405180910390a3505050565b5f60208284031215610298575f80fd5b81516001600160a01b03811681146102ae575f80fd5b9392505050565b634e487b7160e01b5f52604160045260245ffd5b600181811c908216806102dd57607f821691505b6020821081036102fb57634e487b7160e01b5f52602260045260245ffd5b50919050565b601f82111561034857805f5260205f20601f840160051c810160208510156103265750805b601f840160051c820191505b81811015610345575f8155600101610332565b50505b505050565b81516001600160401b03811115610366576103666102b5565b61037a8161037484546102c9565b84610301565b6020601f8211600181146103ac575f83156103955750848201515b5f19600385901b1c1916600184901b178455610345565b5f84815260208120601f198516915b828110156103db57878501518255602094850194600190920191016103bb565b50848210156103f857868401515f19600387901b60f8161c191681555b50505050600190811b01905550565b8082018082111561042657634e487b7160e01b5f52601160045260245ffd5b92915050565b6108b3806104395f395ff3fe608060405234801561000f575f80fd5b50600436106100e5575f3560e01c8063715018a611610088578063a9059cbb11610063578063a9059cbb146101c6578063dd62ed3e146101d9578063de5f72fd14610211578063f2fde38b14610219575f80fd5b8063715018a61461019b5780638da5cb5b146101a357806395d89b41146101be575f80fd5b806323b872dd116100c357806323b872dd1461013c578063313ce5671461014f57806340c10f191461015e57806370a0823114610173575f80fd5b806306fdde03146100e9578063095ea7b31461010757806318160ddd1461012a575b5f80fd5b6100f161022c565b6040516100fe9190610723565b60405180910390f35b61011a610115366004610773565b6102bc565b60405190151581526020016100fe565b6002545b6040519081526020016100fe565b61011a61014a36600461079b565b6102d5565b604051600681526020016100fe565b61017161016c366004610773565b6102f8565b005b61012e6101813660046107d5565b6001600160a01b03165f9081526020819052604090205490565b61017161030e565b6005546040516001600160a01b0390911681526020016100fe565b6100f1610321565b61011a6101d4366004610773565b610330565b61012e6101e73660046107f5565b6001600160a01b039182165f90815260016020908152604080832093909416825291909152205490565b61017161033d565b6101716102273660046107d5565b61034c565b60606003805461023b90610826565b80601f016020809104026020016040519081016040528092919081815260200182805461026790610826565b80156102b25780601f10610289576101008083540402835291602001916102b2565b820191905f5260205f20905b81548152906001019060200180831161029557829003601f168201915b5050505050905090565b5f336102c981858561038e565b60019150505b92915050565b5f336102e28582856103a0565b6102ed85858561041c565b506001949350505050565b610300610479565b61030a82826104a6565b5050565b610316610479565b61031f5f6104da565b565b60606004805461023b90610826565b5f336102c981858561041c565b61031f336402540be4006104a6565b610354610479565b6001600160a01b03811661038257604051631e4fbdf760e01b81525f60048201526024015b60405180910390fd5b61038b816104da565b50565b61039b838383600161052b565b505050565b6001600160a01b038381165f908152600160209081526040808320938616835292905220545f19811015610416578181101561040857604051637dc7a0d960e11b81526001600160a01b03841660048201526024810182905260448101839052606401610379565b61041684848484035f61052b565b50505050565b6001600160a01b03831661044557604051634b637e8f60e11b81525f6004820152602401610379565b6001600160a01b03821661046e5760405163ec442f0560e01b81525f6004820152602401610379565b61039b8383836105fd565b6005546001600160a01b0316331461031f5760405163118cdaa760e01b8152336004820152602401610379565b6001600160a01b0382166104cf5760405163ec442f0560e01b81525f6004820152602401610379565b61030a5f83836105fd565b600580546001600160a01b038381166001600160a01b0319831681179093556040519116919082907f8be0079c531659141344cd1fd0a4f28419497f9722a3daafe3b4186f6b6457e0905f90a35050565b6001600160a01b0384166105545760405163e602df0560e01b81525f6004820152602401610379565b6001600160a01b03831661057d57604051634a1406b160e11b81525f6004820152602401610379565b6001600160a01b038085165f908152600160209081526040808320938716835292905220829055801561041657826001600160a01b0316846001600160a01b03167f8c5be1e5ebec7d5bd14f71427d1e84f3dd0314c0f7b2291e5b200ac8c7c3b925846040516105ef91815260200190565b60405180910390a350505050565b6001600160a01b038316610627578060025f82825461061c919061085e565b909155506106979050565b6001600160a01b0383165f90815260208190526040902054818110156106795760405163391434e360e21b81526001600160a01b03851660048201526024810182905260448101839052606401610379565b6001600160a01b0384165f9081526020819052604090209082900390555b6001600160a01b0382166106b3576002805482900390556106d1565b6001600160a01b0382165f9081526020819052604090208054820190555b816001600160a01b0316836001600160a01b03167fddf252ad1be2c89b69c2b068fc378daa952ba7f163c4a11628f55a4df523b3ef8360405161071691815260200190565b60405180910390a3505050565b602081525f82518060208401528060208501604085015e5f604082850101526040601f19601f83011684010191505092915050565b80356001600160a01b038116811461076e575f80fd5b919050565b5f8060408385031215610784575f80fd5b61078d83610758565b946020939093013593505050565b5f805f606084860312156107ad575f80fd5b6107b684610758565b92506107c460208501610758565b929592945050506040919091013590565b5f602082840312156107e5575f80fd5b6107ee82610758565b9392505050565b5f8060408385031215610806575f80fd5b61080f83610758565b915061081d60208401610758565b90509250929050565b600181811c9082168061083a57607f821691505b60208210810361085857634e487b7160e01b5f52602260045260245ffd5b50919050565b808201808211156102cf57634e487b7160e01b5f52601160045260245ffdfea2646970667358221220f85c7f681a6d7fb132fa2b130a226dc5740a867b4d5056e34a7d6f21c0512b6564736f6c634300081a0033608060405234801561000f575f80fd5b50604051610cfc380380610cfc83398101604081905261002e91610295565b806040518060400160405280601081526020016f5772617070656420457468657265756d60801b815250604051806040016040528060048152602001630ae8aa8960e31b8152508160039081610084919061035a565b506004610091828261035a565b5050506001600160a01b0381166100c257604051631e4fbdf760e01b81525f60048201526024015b60405180910390fd5b6100cb816100e6565b506100e08169021e19e0c9bab2400000610137565b50610439565b600580546001600160a01b038381166001600160a01b0319831681179093556040519116919082907f8be0079c531659141344cd1fd0a4f28419497f9722a3daafe3b4186f6b6457e0905f90a35050565b6001600160a01b0382166101605760405163ec442f0560e01b81525f60048201526024016100b9565b61016b5f838361016f565b5050565b6001600160a01b038316610199578060025f82825461018e9190610414565b909155506102099050565b6001600160a01b0383165f90815260208190526040902054818110156101eb5760405163391434e360e21b81526001600160a01b038516600482015260248101829052604481018390526064016100b9565b6001600160a01b0384165f9081526020819052604090209082900390555b6001600160a01b03821661022557600280548290039055610243565b6001600160a01b0382165f9081526020819052604090208054820190555b816001600160a01b0316836001600160a01b03167fddf252ad1be2c89b69c2b068fc378daa952ba7f163c4a11628f55a4df523b3ef8360405161028891815260200190565b60405180910390a3505050565b5f602082840312156102a5575f80fd5b81516001600160a01b03811681146102bb575f80fd5b9392505050565b634e487b7160e01b5f52604160045260245ffd5b600181811c908216806102ea57607f821691505b60208210810361030857634e487b7160e01b5f52602260045260245ffd5b50919050565b601f82111561035557805f5260205f20601f840160051c810160208510156103335750805b601f840160051c820191505b81811015610352575f815560010161033f565b50505b505050565b81516001600160401b03811115610373576103736102c2565b6103878161038184546102d6565b8461030e565b6020601f8211600181146103b9575f83156103a25750848201515b5f19600385901b1c1916600184901b178455610352565b5f84815260208120601f198516915b828110156103e857878501518255602094850194600190920191016103c8565b508482101561040557868401515f19600387901b60f8161c191681555b50505050600190811b01905550565b8082018082111561043357634e487b7160e01b5f52601160045260245ffd5b92915050565b6108b6806104465f395ff3fe608060405234801561000f575f80fd5b50600436106100e5575f3560e01c8063715018a611610088578063a9059cbb11610063578063a9059cbb146101c6578063dd62ed3e146101d9578063de5f72fd14610211578063f2fde38b14610219575f80fd5b8063715018a61461019b5780638da5cb5b146101a357806395d89b41146101be575f80fd5b806323b872dd116100c357806323b872dd1461013c578063313ce5671461014f57806340c10f191461015e57806370a0823114610173575f80fd5b806306fdde03146100e9578063095ea7b31461010757806318160ddd1461012a575b5f80fd5b6100f161022c565b6040516100fe9190610726565b60405180910390f35b61011a610115366004610776565b6102bc565b60405190151581526020016100fe565b6002545b6040519081526020016100fe565b61011a61014a36600461079e565b6102d5565b604051601281526020016100fe565b61017161016c366004610776565b6102f8565b005b61012e6101813660046107d8565b6001600160a01b03165f9081526020819052604090205490565b61017161030e565b6005546040516001600160a01b0390911681526020016100fe565b6100f1610321565b61011a6101d4366004610776565b610330565b61012e6101e73660046107f8565b6001600160a01b039182165f90815260016020908152604080832093909416825291909152205490565b61017161033d565b6101716102273660046107d8565b61034f565b60606003805461023b90610829565b80601f016020809104026020016040519081016040528092919081815260200182805461026790610829565b80156102b25780601f10610289576101008083540402835291602001916102b2565b820191905f5260205f20905b81548152906001019060200180831161029557829003601f168201915b5050505050905090565b5f336102c9818585610391565b60019150505b92915050565b5f336102e28582856103a3565b6102ed85858561041f565b506001949350505050565b61030061047c565b61030a82826104a9565b5050565b61031661047c565b61031f5f6104dd565b565b60606004805461023b90610829565b5f336102c981858561041f565b61031f33674563918244f400006104a9565b61035761047c565b6001600160a01b03811661038557604051631e4fbdf760e01b81525f60048201526024015b60405180910390fd5b61038e816104dd565b50565b61039e838383600161052e565b505050565b6001600160a01b038381165f908152600160209081526040808320938616835292905220545f19811015610419578181101561040b57604051637dc7a0d960e11b81526001600160a01b0384166004820152602481018290526044810183905260640161037c565b61041984848484035f61052e565b50505050565b6001600160a01b03831661044857604051634b637e8f60e11b81525f600482015260240161037c565b6001600160a01b0382166104715760405163ec442f0560e01b81525f600482015260240161037c565b61039e838383610600565b6005546001600160a01b0316331461031f5760405163118cdaa760e01b815233600482015260240161037c565b6001600160a01b0382166104d25760405163ec442f0560e01b81525f600482015260240161037c565b61030a5f8383610600565b600580546001600160a01b038381166001600160a01b0319831681179093556040519116919082907f8be0079c531659141344cd1fd0a4f28419497f9722a3daafe3b4186f6b6457e0905f90a35050565b6001600160a01b0384166105575760405163e602df0560e01b81525f600482015260240161037c565b6001600160a01b03831661058057604051634a1406b160e11b81525f600482015260240161037c565b6001600160a01b038085165f908152600160209081526040808320938716835292905220829055801561041957826001600160a01b0316846001600160a01b03167f8c5be1e5ebec7d5bd14f71427d1e84f3dd0314c0f7b2291e5b200ac8c7c3b925846040516105f291815260200190565b60405180910390a350505050565b6001600160a01b03831661062a578060025f82825461061f9190610861565b9091555061069a9050565b6001600160a01b0383165f908152602081905260409020548181101561067c5760405163391434e360e21b81526001600160a01b0385166004820152602481018290526044810183905260640161037c565b6001600160a01b0384165f9081526020819052604090209082900390555b6001600160a01b0382166106b6576002805482900390556106d4565b6001600160a01b0382165f9081526020819052604090208054820190555b816001600160a01b0316836001600160a01b03167fddf252ad1be2c89b69c2b068fc378daa952ba7f163c4a11628f55a4df523b3ef8360405161071991815260200190565b60405180910390a3505050565b602081525f82518060208401528060208501604085015e5f604082850101526040601f19601f83011684010191505092915050565b80356001600160a01b0381168114610771575f80fd5b919050565b5f8060408385031215610787575f80fd5b6107908361075b565b946020939093013593505050565b5f805f606084860312156107b0575f80fd5b6107b98461075b565b92506107c76020850161075b565b929592945050506040919091013590565b5f602082840312156107e8575f80fd5b6107f18261075b565b9392505050565b5f8060408385031215610809575f80fd5b6108128361075b565b91506108206020840161075b565b90509250929050565b600181811c9082168061083d57607f821691505b60208210810361085b57634e487b7160e01b5f52602260045260245ffd5b50919050565b808201808211156102cf57634e487b7160e01b5f52601160045260245ffdfea2646970667358221220da42f40ecc7427dc778aa3d331d5733d15e6a185970763258bf6f4fa8c19f62464736f6c634300081a00336080604052670de0b6b3a764000060065534801561001b575f80fd5b50604051610fd5380380610fd583398101604081905261003a916102a5565b806040518060400160405280601081526020016f416e6b72205374616b656420466c6f7760801b81525060405180604001604052806008815260200167616e6b72464c4f5760c01b8152508160039081610094919061036a565b5060046100a1828261036a565b5050506001600160a01b0381166100d257604051631e4fbdf760e01b81525f60048201526024015b60405180910390fd5b6100db816100f6565b506100f08169152d02c7e14af6800000610147565b50610449565b600580546001600160a01b038381166001600160a01b0319831681179093556040519116919082907f8be0079c531659141344cd1fd0a4f28419497f9722a3daafe3b4186f6b6457e0905f90a35050565b6001600160a01b0382166101705760405163ec442f0560e01b81525f60048201526024016100c9565b61017b5f838361017f565b5050565b6001600160a01b0383166101a9578060025f82825461019e9190610424565b909155506102199050565b6001600160a01b0383165f90815260208190526040902054818110156101fb5760405163391434e360e21b81526001600160a01b038516600482015260248101829052604481018390526064016100c9565b6001600160a01b0384165f9081526020819052604090209082900390555b6001600160a01b03821661023557600280548290039055610253565b6001600160a01b0382165f9081526020819052604090208054820190555b816001600160a01b0316836001600160a01b03167fddf252ad1be2c89b69c2b068fc378daa952ba7f163c4a11628f55a4df523b3ef8360405161029891815260200190565b60405180910390a3505050565b5f602082840312156102b5575f80fd5b81516001600160a01b03811681146102cb575f80fd5b9392505050565b634e487b7160e01b5f52604160045260245ffd5b600181811c908216806102fa57607f821691505b60208210810361031857634e487b7160e01b5f52602260045260245ffd5b50919050565b601f82111561036557805f5260205f20601f840160051c810160208510156103435750805b601f840160051c820191505b81811015610362575f815560010161034f565b50505b505050565b81516001600160401b03811115610383576103836102d2565b6103978161039184546102e6565b8461031e565b6020601f8211600181146103c9575f83156103b25750848201515b5f19600385901b1c1916600184901b178455610362565b5f84815260208120601f198516915b828110156103f857878501518255602094850194600190920191016103d8565b508482101561041557868401515f19600387901b60f8161c191681555b50505050600190811b01905550565b8082018082111561044357634e487b7160e01b5f52601160045260245ffd5b92915050565b610b7f806104565f395ff3fe608060405260043610610108575f3560e01c806370a0823111610092578063a9059cbb11610062578063a9059cbb146102cf578063dd62ed3e146102ee578063de5f72fd14610332578063e37540ef14610346578063f2fde38b14610365575f80fd5b806370a082311461024c578063715018a6146102805780638da5cb5b1461029457806395d89b41146102bb575f80fd5b80632e17de78116100d85780632e17de78146101d6578063313ce567146101f55780633a4b66f1146102105780633e6e94971461021857806340c10f191461022d575f80fd5b806306fdde0314610140578063095ea7b31461016a57806318160ddd1461019957806323b872dd146101b7575f80fd5b3661013c576006545f9061012434670de0b6b3a76400006109ae565b61012e91906109c5565b905061013a3382610384565b005b5f80fd5b34801561014b575f80fd5b506101546103c1565b60405161016191906109e4565b60405180910390f35b348015610175575f80fd5b50610189610184366004610a34565b610451565b6040519015158152602001610161565b3480156101a4575f80fd5b506002545b604051908152602001610161565b3480156101c2575f80fd5b506101896101d1366004610a5c565b61046a565b3480156101e1575f80fd5b5061013a6101f0366004610a96565b61048d565b348015610200575f80fd5b5060405160128152602001610161565b61013a61053f565b348015610223575f80fd5b506101a960065481565b348015610238575f80fd5b5061013a610247366004610a34565b61056f565b348015610257575f80fd5b506101a9610266366004610aad565b6001600160a01b03165f9081526020819052604090205490565b34801561028b575f80fd5b5061013a610581565b34801561029f575f80fd5b506005546040516001600160a01b039091168152602001610161565b3480156102c6575f80fd5b50610154610594565b3480156102da575f80fd5b506101896102e9366004610a34565b6105a3565b3480156102f9575f80fd5b506101a9610308366004610acd565b6001600160a01b039182165f90815260016020908152604080832093909416825291909152205490565b34801561033d575f80fd5b5061013a6105b0565b348015610351575f80fd5b5061013a610360366004610a96565b6105c3565b348015610370575f80fd5b5061013a61037f366004610aad565b6105d0565b6001600160a01b0382166103b25760405163ec442f0560e01b81525f60048201526024015b60405180910390fd5b6103bd5f838361060a565b5050565b6060600380546103d090610afe565b80601f01602080910402602001604051908101604052809291908181526020018280546103fc90610afe565b80156104475780601f1061041e57610100808354040283529160200191610447565b820191905f5260205f20905b81548152906001019060200180831161042a57829003601f168201915b5050505050905090565b5f3361045e818585610730565b60019150505b92915050565b5f3361047785828561073d565b6104828585856107b9565b506001949350505050565b335f908152602081905260409020548111156104e25760405162461bcd60e51b8152602060048201526014602482015273496e73756666696369656e742062616c616e636560601b60448201526064016103a9565b5f670de0b6b3a7640000600654836104fa91906109ae565b61050491906109c5565b90506105103383610816565b604051339082156108fc029083905f818181858888f1935050505015801561053a573d5f803e3d5ffd5b505050565b6006545f9061055634670de0b6b3a76400006109ae565b61056091906109c5565b905061056c3382610384565b50565b61057761084a565b6103bd8282610384565b61058961084a565b6105925f610877565b565b6060600480546103d090610afe565b5f3361045e8185856107b9565b61059233681b1ae4d6e2ef500000610384565b6105cb61084a565b600655565b6105d861084a565b6001600160a01b03811661060157604051631e4fbdf760e01b81525f60048201526024016103a9565b61056c81610877565b6001600160a01b038316610634578060025f8282546106299190610b36565b909155506106a49050565b6001600160a01b0383165f90815260208190526040902054818110156106865760405163391434e360e21b81526001600160a01b038516600482015260248101829052604481018390526064016103a9565b6001600160a01b0384165f9081526020819052604090209082900390555b6001600160a01b0382166106c0576002805482900390556106de565b6001600160a01b0382165f9081526020819052604090208054820190555b816001600160a01b0316836001600160a01b03167fddf252ad1be2c89b69c2b068fc378daa952ba7f163c4a11628f55a4df523b3ef8360405161072391815260200190565b60405180910390a3505050565b61053a83838360016108c8565b6001600160a01b038381165f908152600160209081526040808320938616835292905220545f198110156107b357818110156107a557604051637dc7a0d960e11b81526001600160a01b038416600482015260248101829052604481018390526064016103a9565b6107b384848484035f6108c8565b50505050565b6001600160a01b0383166107e257604051634b637e8f60e11b81525f60048201526024016103a9565b6001600160a01b03821661080b5760405163ec442f0560e01b81525f60048201526024016103a9565b61053a83838361060a565b6001600160a01b03821661083f57604051634b637e8f60e11b81525f60048201526024016103a9565b6103bd825f8361060a565b6005546001600160a01b031633146105925760405163118cdaa760e01b81523360048201526024016103a9565b600580546001600160a01b038381166001600160a01b0319831681179093556040519116919082907f8be0079c531659141344cd1fd0a4f28419497f9722a3daafe3b4186f6b6457e0905f90a35050565b6001600160a01b0384166108f15760405163e602df0560e01b81525f60048201526024016103a9565b6001600160a01b03831661091a57604051634a1406b160e11b81525f60048201526024016103a9565b6001600160a01b038085165f90815260016020908152604080832093871683529290522082905580156107b357826001600160a01b0316846001600160a01b03167f8c5be1e5ebec7d5bd14f71427d1e84f3dd0314c0f7b2291e5b200ac8c7c3b9258460405161098c91815260200190565b60405180910390a350505050565b634e487b7160e01b5f52601160045260245ffd5b80820281158282048414176104645761046461099a565b5f826109df57634e487b7160e01b5f52601260045260245ffd5b500490565b602081525f82518060208401528060208501604085015e5f604082850101526040601f19601f83011684010191505092915050565b80356001600160a01b0381168114610a2f575f80fd5b919050565b5f8060408385031215610a45575f80fd5b610a4e83610a19565b946020939093013593505050565b5f805f60608486031215610a6e575f80fd5b610a7784610a19565b9250610a8560208501610a19565b929592945050506040919091013590565b5f60208284031215610aa6575f80fd5b5035919050565b5f60208284031215610abd575f80fd5b610ac682610a19565b9392505050565b5f8060408385031215610ade575f80fd5b610ae783610a19565b9150610af560208401610a19565b90509250929050565b600181811c90821680610b1257607f821691505b602082108103610b3057634e487b7160e01b5f52602260045260245ffd5b50919050565b808201808211156104645761046461099a56fea2646970667358221220cf05910fc54bc156bdc2588d70b9d9525ed2e5b54121490b2c4ff73dc8d23bde64736f6c634300081a0033608060405234801561000f575f80fd5b50604051610cfe380380610cfe83398101604081905261002e91610295565b806040518060400160405280600d81526020016c5472756d70206f6e20466c6f7760981b8152506040518060400160405280600581526020016405452554d560dc1b8152508160039081610082919061035a565b50600461008f828261035a565b5050506001600160a01b0381166100c057604051631e4fbdf760e01b81525f60048201526024015b60405180910390fd5b6100c9816100e6565b506100e0816b033b2e3c9fd0803ce8000000610137565b50610439565b600580546001600160a01b038381166001600160a01b0319831681179093556040519116919082907f8be0079c531659141344cd1fd0a4f28419497f9722a3daafe3b4186f6b6457e0905f90a35050565b6001600160a01b0382166101605760405163ec442f0560e01b81525f60048201526024016100b7565b61016b5f838361016f565b5050565b6001600160a01b038316610199578060025f82825461018e9190610414565b909155506102099050565b6001600160a01b0383165f90815260208190526040902054818110156101eb5760405163391434e360e21b81526001600160a01b038516600482015260248101829052604481018390526064016100b7565b6001600160a01b0384165f9081526020819052604090209082900390555b6001600160a01b03821661022557600280548290039055610243565b6001600160a01b0382165f9081526020819052604090208054820190555b816001600160a01b0316836001600160a01b03167fddf252ad1be2c89b69c2b068fc378daa952ba7f163c4a11628f55a4df523b3ef8360405161028891815260200190565b60405180910390a3505050565b5f602082840312156102a5575f80fd5b81516001600160a01b03811681146102bb575f80fd5b9392505050565b634e487b7160e01b5f52604160045260245ffd5b600181811c908216806102ea57607f821691505b60208210810361030857634e487b7160e01b5f52602260045260245ffd5b50919050565b601f82111561035557805f5260205f20601f840160051c810160208510156103335750805b601f840160051c820191505b81811015610352575f815560010161033f565b50505b505050565b81516001600160401b03811115610373576103736102c2565b6103878161038184546102d6565b8461030e565b6020601f8211600181146103b9575f83156103a25750848201515b5f19600385901b1c1916600184901b178455610352565b5f84815260208120601f198516915b828110156103e857878501518255602094850194600190920191016103c8565b508482101561040557868401515f19600387901b60f8161c191681555b50505050600190811b01905550565b8082018082111561043357634e487b7160e01b5f52601160045260245ffd5b92915050565b6108b8806104465f395ff3fe608060405234801561000f575f80fd5b50600436106100e5575f3560e01c8063715018a611610088578063a9059cbb11610063578063a9059cbb146101c6578063dd62ed3e146101d9578063de5f72fd14610211578063f2fde38b14610219575f80fd5b8063715018a61461019b5780638da5cb5b146101a357806395d89b41146101be575f80fd5b806323b872dd116100c357806323b872dd1461013c578063313ce5671461014f57806340c10f191461015e57806370a0823114610173575f80fd5b806306fdde03146100e9578063095ea7b31461010757806318160ddd1461012a575b5f80fd5b6100f161022c565b6040516100fe9190610728565b60405180910390f35b61011a610115366004610778565b6102bc565b60405190151581526020016100fe565b6002545b6040519081526020016100fe565b61011a61014a3660046107a0565b6102d5565b604051601281526020016100fe565b61017161016c366004610778565b6102f8565b005b61012e6101813660046107da565b6001600160a01b03165f9081526020819052604090205490565b61017161030e565b6005546040516001600160a01b0390911681526020016100fe565b6100f1610321565b61011a6101d4366004610778565b610330565b61012e6101e73660046107fa565b6001600160a01b039182165f90815260016020908152604080832093909416825291909152205490565b61017161033d565b6101716102273660046107da565b610351565b60606003805461023b9061082b565b80601f01602080910402602001604051908101604052809291908181526020018280546102679061082b565b80156102b25780601f10610289576101008083540402835291602001916102b2565b820191905f5260205f20905b81548152906001019060200180831161029557829003601f168201915b5050505050905090565b5f336102c9818585610393565b60019150505b92915050565b5f336102e28582856103a5565b6102ed858585610421565b506001949350505050565b61030061047e565b61030a82826104ab565b5050565b61031661047e565b61031f5f6104df565b565b60606004805461023b9061082b565b5f336102c9818585610421565b61031f3369152d02c7e14af68000006104ab565b61035961047e565b6001600160a01b03811661038757604051631e4fbdf760e01b81525f60048201526024015b60405180910390fd5b610390816104df565b50565b6103a08383836001610530565b505050565b6001600160a01b038381165f908152600160209081526040808320938616835292905220545f1981101561041b578181101561040d57604051637dc7a0d960e11b81526001600160a01b0384166004820152602481018290526044810183905260640161037e565b61041b84848484035f610530565b50505050565b6001600160a01b03831661044a57604051634b637e8f60e11b81525f600482015260240161037e565b6001600160a01b0382166104735760405163ec442f0560e01b81525f600482015260240161037e565b6103a0838383610602565b6005546001600160a01b0316331461031f5760405163118cdaa760e01b815233600482015260240161037e565b6001600160a01b0382166104d45760405163ec442f0560e01b81525f600482015260240161037e565b61030a5f8383610602565b600580546001600160a01b038381166001600160a01b0319831681179093556040519116919082907f8be0079c531659141344cd1fd0a4f28419497f9722a3daafe3b4186f6b6457e0905f90a35050565b6001600160a01b0384166105595760405163e602df0560e01b81525f600482015260240161037e565b6001600160a01b03831661058257604051634a1406b160e11b81525f600482015260240161037e565b6001600160a01b038085165f908152600160209081526040808320938716835292905220829055801561041b57826001600160a01b0316846001600160a01b03167f8c5be1e5ebec7d5bd14f71427d1e84f3dd0314c0f7b2291e5b200ac8c7c3b925846040516105f491815260200190565b60405180910390a350505050565b6001600160a01b03831661062c578060025f8282546106219190610863565b9091555061069c9050565b6001600160a01b0383165f908152602081905260409020548181101561067e5760405163391434e360e21b81526001600160a01b0385166004820152602481018290526044810183905260640161037e565b6001600160a01b0384165f9081526020819052604090209082900390555b6001600160a01b0382166106b8576002805482900390556106d6565b6001600160a01b0382165f9081526020819052604090208054820190555b816001600160a01b0316836001600160a01b03167fddf252ad1be2c89b69c2b068fc378daa952ba7f163c4a11628f55a4df523b3ef8360405161071b91815260200190565b60405180910390a3505050565b602081525f82518060208401528060208501604085015e5f604082850101526040601f19601f83011684010191505092915050565b80356001600160a01b0381168114610773575f80fd5b919050565b5f8060408385031215610789575f80fd5b6107928361075d565b946020939093013593505050565b5f805f606084860312156107b2575f80fd5b6107bb8461075d565b92506107c96020850161075d565b929592945050506040919091013590565b5f602082840312156107ea575f80fd5b6107f38261075d565b9392505050565b5f806040838503121561080b575f80fd5b6108148361075d565b91506108226020840161075d565b90509250929050565b600181811c9082168061083f57607f821691505b60208210810361085d57634e487b7160e01b5f52602260045260245ffd5b50919050565b808201808211156102cf57634e487b7160e01b5f52601160045260245ffdfea2646970667358221220cfcff0a6d9bb6aa01a0e485c6f43f1d84fb987ee80672311b9510be04374135664736f6c634300081a00334275a04f386d38c13d3a89c4f7c17ee7baac8739b9d66e68cfb9134a39401c56a2646970667358221220af42d22e1d819f0134d57d9f1d37128b3d411eb7264f268378024a85409d7eb864736f6c634300081a0033","linkReferences":{}},"methodIdentifiers":{"ankrFlow()":"afb1ab48","deployAssets()":"037897d6","fundUser(address)":"26c40c68","getAssets()":"67e4ac2c","owner()":"8da5cb5b","renounceOwnership()":"715018a6","transferOwnership(address)":"f2fde38b","trump()":"c29ec459","usdc()":"3e413bee","weth()":"3fc8cef3","wflow()":"55292b8e"},"id":38}