{"abi":[{"type":"constructor","inputs":[{"name":"owner","type":"address","internalType":"address"}],"stateMutability":"nonpayable"},{"type":"function","name":"allowance","inputs":[{"name":"owner","type":"address","internalType":"address"},{"name":"spender","type":"address","internalType":"address"}],"outputs":[{"name":"","type":"uint256","internalType":"uint256"}],"stateMutability":"view"},{"type":"function","name":"approve","inputs":[{"name":"spender","type":"address","internalType":"address"},{"name":"value","type":"uint256","internalType":"uint256"}],"outputs":[{"name":"","type":"bool","internalType":"bool"}],"stateMutability":"nonpayable"},{"type":"function","name":"balanceOf","inputs":[{"name":"account","type":"address","internalType":"address"}],"outputs":[{"name":"","type":"uint256","internalType":"uint256"}],"stateMutability":"view"},{"type":"function","name":"decimals","inputs":[],"outputs":[{"name":"","type":"uint8","internalType":"uint8"}],"stateMutability":"pure"},{"type":"function","name":"faucet","inputs":[],"outputs":[],"stateMutability":"nonpayable"},{"type":"function","name":"mint","inputs":[{"name":"to","type":"address","internalType":"address"},{"name":"amount","type":"uint256","internalType":"uint256"}],"outputs":[],"stateMutability":"nonpayable"},{"type":"function","name":"name","inputs":[],"outputs":[{"name":"","type":"string","internalType":"string"}],"stateMutability":"view"},{"type":"function","name":"owner","inputs":[],"outputs":[{"name":"","type":"address","internalType":"address"}],"stateMutability":"view"},{"type":"function","name":"renounceOwnership","inputs":[],"outputs":[],"stateMutability":"nonpayable"},{"type":"function","name":"symbol","inputs":[],"outputs":[{"name":"","type":"string","internalType":"string"}],"stateMutability":"view"},{"type":"function","name":"totalSupply","inputs":[],"outputs":[{"name":"","type":"uint256","internalType":"uint256"}],"stateMutability":"view"},{"type":"function","name":"transfer","inputs":[{"name":"to","type":"address","internalType":"address"},{"name":"value","type":"uint256","internalType":"uint256"}],"outputs":[{"name":"","type":"bool","internalType":"bool"}],"stateMutability":"nonpayable"},{"type":"function","name":"transferFrom","inputs":[{"name":"from","type":"address","internalType":"address"},{"name":"to","type":"address","internalType":"address"},{"name":"value","type":"uint256","internalType":"uint256"}],"outputs":[{"name":"","type":"bool","internalType":"bool"}],"stateMutability":"nonpayable"},{"type":"function","name":"transferOwnership","inputs":[{"name":"newOwner","type":"address","internalType":"address"}],"outputs":[],"stateMutability":"nonpayable"},{"type":"event","name":"Approval","inputs":[{"name":"owner","type":"address","indexed":true,"internalType":"address"},{"name":"spender","type":"address","indexed":true,"internalType":"address"},{"name":"value","type":"uint256","indexed":false,"internalType":"uint256"}],"anonymous":false},{"type":"event","name":"OwnershipTransferred","inputs":[{"name":"previousOwner","type":"address","indexed":true,"internalType":"address"},{"name":"newOwner","type":"address","indexed":true,"internalType":"address"}],"anonymous":false},{"type":"event","name":"Transfer","inputs":[{"name":"from","type":"address","indexed":true,"internalType":"address"},{"name":"to","type":"address","indexed":true,"internalType":"address"},{"name":"value","type":"uint256","indexed":false,"internalType":"uint256"}],"anonymous":false},{"type":"error","name":"ERC20InsufficientAllowance","inputs":[{"name":"spender","type":"address","internalType":"address"},{"name":"allowance","type":"uint256","internalType":"uint256"},{"name":"needed","type":"uint256","internalType":"uint256"}]},{"type":"error","name":"ERC20InsufficientBalance","inputs":[{"name":"sender","type":"address","internalType":"address"},{"name":"balance","type":"uint256","internalType":"uint256"},{"name":"needed","type":"uint256","internalType":"uint256"}]},{"type":"error","name":"ERC20InvalidApprover","inputs":[{"name":"approver","type":"address","internalType":"address"}]},{"type":"error","name":"ERC20InvalidReceiver","inputs":[{"name":"receiver","type":"address","internalType":"address"}]},{"type":"error","name":"ERC20InvalidSender","inputs":[{"name":"sender","type":"address","internalType":"address"}]},{"type":"error","name":"ERC20InvalidSpender","inputs":[{"name":"spender","type":"address","internalType":"address"}]},{"type":"error","name":"OwnableInvalidOwner","inputs":[{"name":"owner","type":"address","internalType":"address"}]},{"type":"error","name":"OwnableUnauthorizedAccount","inputs":[{"name":"account","type":"address","internalType":"address"}]}],"bytecode":{"object":"0x608060405234801561000f575f80fd5b50604051610cec380380610cec83398101604081905261002e91610288565b80604051806040016040528060088152602001672aa9a21021b7b4b760c11b815250604051806040016040528060048152602001635553444360e01b815250816003908161007c919061034d565b506004610089828261034d565b5050506001600160a01b0381166100ba57604051631e4fbdf760e01b81525f60048201526024015b60405180910390fd5b6100c3816100d9565b506100d38164e8d4a5100061012a565b5061042c565b600580546001600160a01b038381166001600160a01b0319831681179093556040519116919082907f8be0079c531659141344cd1fd0a4f28419497f9722a3daafe3b4186f6b6457e0905f90a35050565b6001600160a01b0382166101535760405163ec442f0560e01b81525f60048201526024016100b1565b61015e5f8383610162565b5050565b6001600160a01b03831661018c578060025f8282546101819190610407565b909155506101fc9050565b6001600160a01b0383165f90815260208190526040902054818110156101de5760405163391434e360e21b81526001600160a01b038516600482015260248101829052604481018390526064016100b1565b6001600160a01b0384165f9081526020819052604090209082900390555b6001600160a01b03821661021857600280548290039055610236565b6001600160a01b0382165f9081526020819052604090208054820190555b816001600160a01b0316836001600160a01b03167fddf252ad1be2c89b69c2b068fc378daa952ba7f163c4a11628f55a4df523b3ef8360405161027b91815260200190565b60405180910390a3505050565b5f60208284031215610298575f80fd5b81516001600160a01b03811681146102ae575f80fd5b9392505050565b634e487b7160e01b5f52604160045260245ffd5b600181811c908216806102dd57607f821691505b6020821081036102fb57634e487b7160e01b5f52602260045260245ffd5b50919050565b601f82111561034857805f5260205f20601f840160051c810160208510156103265750805b601f840160051c820191505b81811015610345575f8155600101610332565b50505b505050565b81516001600160401b03811115610366576103666102b5565b61037a8161037484546102c9565b84610301565b6020601f8211600181146103ac575f83156103955750848201515b5f19600385901b1c1916600184901b178455610345565b5f84815260208120601f198516915b828110156103db57878501518255602094850194600190920191016103bb565b50848210156103f857868401515f19600387901b60f8161c191681555b50505050600190811b01905550565b8082018082111561042657634e487b7160e01b5f52601160045260245ffd5b92915050565b6108b3806104395f395ff3fe608060405234801561000f575f80fd5b50600436106100e5575f3560e01c8063715018a611610088578063a9059cbb11610063578063a9059cbb146101c6578063dd62ed3e146101d9578063de5f72fd14610211578063f2fde38b14610219575f80fd5b8063715018a61461019b5780638da5cb5b146101a357806395d89b41146101be575f80fd5b806323b872dd116100c357806323b872dd1461013c578063313ce5671461014f57806340c10f191461015e57806370a0823114610173575f80fd5b806306fdde03146100e9578063095ea7b31461010757806318160ddd1461012a575b5f80fd5b6100f161022c565b6040516100fe9190610723565b60405180910390f35b61011a610115366004610773565b6102bc565b60405190151581526020016100fe565b6002545b6040519081526020016100fe565b61011a61014a36600461079b565b6102d5565b604051600681526020016100fe565b61017161016c366004610773565b6102f8565b005b61012e6101813660046107d5565b6001600160a01b03165f9081526020819052604090205490565b61017161030e565b6005546040516001600160a01b0390911681526020016100fe565b6100f1610321565b61011a6101d4366004610773565b610330565b61012e6101e73660046107f5565b6001600160a01b039182165f90815260016020908152604080832093909416825291909152205490565b61017161033d565b6101716102273660046107d5565b61034c565b60606003805461023b90610826565b80601f016020809104026020016040519081016040528092919081815260200182805461026790610826565b80156102b25780601f10610289576101008083540402835291602001916102b2565b820191905f5260205f20905b81548152906001019060200180831161029557829003601f168201915b5050505050905090565b5f336102c981858561038e565b60019150505b92915050565b5f336102e28582856103a0565b6102ed85858561041c565b506001949350505050565b610300610479565b61030a82826104a6565b5050565b610316610479565b61031f5f6104da565b565b60606004805461023b90610826565b5f336102c981858561041c565b61031f336402540be4006104a6565b610354610479565b6001600160a01b03811661038257604051631e4fbdf760e01b81525f60048201526024015b60405180910390fd5b61038b816104da565b50565b61039b838383600161052b565b505050565b6001600160a01b038381165f908152600160209081526040808320938616835292905220545f19811015610416578181101561040857604051637dc7a0d960e11b81526001600160a01b03841660048201526024810182905260448101839052606401610379565b61041684848484035f61052b565b50505050565b6001600160a01b03831661044557604051634b637e8f60e11b81525f6004820152602401610379565b6001600160a01b03821661046e5760405163ec442f0560e01b81525f6004820152602401610379565b61039b8383836105fd565b6005546001600160a01b0316331461031f5760405163118cdaa760e01b8152336004820152602401610379565b6001600160a01b0382166104cf5760405163ec442f0560e01b81525f6004820152602401610379565b61030a5f83836105fd565b600580546001600160a01b038381166001600160a01b0319831681179093556040519116919082907f8be0079c531659141344cd1fd0a4f28419497f9722a3daafe3b4186f6b6457e0905f90a35050565b6001600160a01b0384166105545760405163e602df0560e01b81525f6004820152602401610379565b6001600160a01b03831661057d57604051634a1406b160e11b81525f6004820152602401610379565b6001600160a01b038085165f908152600160209081526040808320938716835292905220829055801561041657826001600160a01b0316846001600160a01b03167f8c5be1e5ebec7d5bd14f71427d1e84f3dd0314c0f7b2291e5b200ac8c7c3b925846040516105ef91815260200190565b60405180910390a350505050565b6001600160a01b038316610627578060025f82825461061c919061085e565b909155506106979050565b6001600160a01b0383165f90815260208190526040902054818110156106795760405163391434e360e21b81526001600160a01b03851660048201526024810182905260448101839052606401610379565b6001600160a01b0384165f9081526020819052604090209082900390555b6001600160a01b0382166106b3576002805482900390556106d1565b6001600160a01b0382165f9081526020819052604090208054820190555b816001600160a01b0316836001600160a01b03167fddf252ad1be2c89b69c2b068fc378daa952ba7f163c4a11628f55a4df523b3ef8360405161071691815260200190565b60405180910390a3505050565b602081525f82518060208401528060208501604085015e5f604082850101526040601f19601f83011684010191505092915050565b80356001600160a01b038116811461076e575f80fd5b919050565b5f8060408385031215610784575f80fd5b61078d83610758565b946020939093013593505050565b5f805f606084860312156107ad575f80fd5b6107b684610758565b92506107c460208501610758565b929592945050506040919091013590565b5f602082840312156107e5575f80fd5b6107ee82610758565b9392505050565b5f8060408385031215610806575f80fd5b61080f83610758565b915061081d60208401610758565b90509250929050565b600181811c9082168061083a57607f821691505b60208210810361085857634e487b7160e01b5f52602260045260245ffd5b50919050565b808201808211156102cf57634e487b7160e01b5f52601160045260245ffdfea2646970667358221220f85c7f681a6d7fb132fa2b130a226dc5740a867b4d5056e34a7d6f21c0512b6564736f6c634300081a0033","linkReferences":{}},"methodIdentifiers":{"allowance(address,address)":"dd62ed3e","approve(address,uint256)":"095ea7b3","balanceOf(address)":"70a08231","decimals()":"313ce567","faucet()":"de5f72fd","mint(address,uint256)":"40c10f19","name()":"06fdde03","owner()":"8da5cb5b","renounceOwnership()":"715018a6","symbol()":"95d89b41","totalSupply()":"18160ddd","transfer(address,uint256)":"a9059cbb","transferFrom(address,address,uint256)":"23b872dd","transferOwnership(address)":"f2fde38b"},"id":38}