{"abi":[{"type":"receive","stateMutability":"payable"},{"type":"function","name":"FLOW_CHAIN_ID","inputs":[],"outputs":[{"name":"","type":"uint256","internalType":"uint256"}],"stateMutability":"view"},{"type":"function","name":"depositToETF","inputs":[{"name":"token","type":"address","internalType":"address"},{"name":"amount","type":"uint256","internalType":"uint256"}],"outputs":[],"stateMutability":"nonpayable"},{"type":"function","name":"executeBatch","inputs":[{"name":"targets","type":"address[]","internalType":"address[]"},{"name":"calldatas","type":"bytes[]","internalType":"bytes[]"},{"name":"values","type":"uint256[]","internalType":"uint256[]"}],"outputs":[{"name":"successCount","type":"uint256","internalType":"uint256"}],"stateMutability":"nonpayable"},{"type":"function","name":"executeVaultCall","inputs":[{"name":"callData","type":"bytes","internalType":"bytes"}],"outputs":[{"name":"result","type":"bytes","internalType":"bytes"}],"stateMutability":"nonpayable"},{"type":"function","name":"getAgent","inputs":[],"outputs":[{"name":"","type":"address","internalType":"address"}],"stateMutability":"view"},{"type":"function","name":"getNonce","inputs":[],"outputs":[{"name":"","type":"uint256","internalType":"uint256"}],"stateMutability":"view"},{"type":"function","name":"getVault","inputs":[],"outputs":[{"name":"","type":"address","internalType":"address"}],"stateMutability":"view"},{"type":"function","name":"initialize","inputs":[{"name":"vault","type":"address","internalType":"address"},{"name":"agent","type":"address","internalType":"address"}],"outputs":[],"stateMutability":"nonpayable"},{"type":"function","name":"revokeDelegation","inputs":[],"outputs":[],"stateMutability":"nonpayable"},{"type":"function","name":"setAgent","inputs":[{"name":"newAgent","type":"address","internalType":"address"}],"outputs":[],"stateMutability":"nonpayable"},{"type":"function","name":"setVault","inputs":[{"name":"newVault","type":"address","internalType":"address"}],"outputs":[],"stateMutability":"nonpayable"},{"type":"function","name":"transferFunds","inputs":[{"name":"token","type":"address","internalType":"address"},{"name":"to","type":"address","internalType":"address"},{"name":"amount","type":"uint256","internalType":"uint256"}],"outputs":[],"stateMutability":"nonpayable"},{"type":"function","name":"withdrawFromETF","inputs":[{"name":"shares","type":"uint256","internalType":"uint256"},{"name":"tokenOut","type":"address","internalType":"address"},{"name":"minAmountOut","type":"uint256","internalType":"uint256"}],"outputs":[],"stateMutability":"nonpayable"},{"type":"event","name":"AgentSet","inputs":[{"name":"eoa","type":"address","indexed":true,"internalType":"address"},{"name":"agent","type":"address","indexed":true,"internalType":"address"}],"anonymous":false},{"type":"event","name":"BatchExecuted","inputs":[{"name":"eoa","type":"address","indexed":true,"internalType":"address"},{"name":"callCount","type":"uint256","indexed":false,"internalType":"uint256"},{"name":"successCount","type":"uint256","indexed":false,"internalType":"uint256"}],"anonymous":false},{"type":"event","name":"VaultSet","inputs":[{"name":"eoa","type":"address","indexed":true,"internalType":"address"},{"name":"vault","type":"address","indexed":true,"internalType":"address"}],"anonymous":false},{"type":"error","name":"CallFailed","inputs":[{"name":"index","type":"uint256","internalType":"uint256"}]},{"type":"error","name":"InvalidAgent","inputs":[]},{"type":"error","name":"InvalidChain","inputs":[]},{"type":"error","name":"InvalidVault","inputs":[]},{"type":"error","name":"UnauthorizedAgent","inputs":[]}],"bytecode":{"object":"0x6080604052348015600e575f80fd5b506112118061001c5f395ff3fe6080604052600436106100c2575f3560e01c80638d928af81161007c578063bcf685ed11610057578063bcf685ed14610202578063cc29abd314610221578063d087d28814610240578063f551eb1914610254575f80fd5b80638d928af8146101a3578063a4d31805146101cf578063b77ce564146101e3575f80fd5b80631501bf03146100cd5780632c7829f2146100ee578063418acf2c14610123578063485cc955146101425780634fc66565146101615780636817031b14610184575f80fd5b366100c957005b5f80fd5b3480156100d8575f80fd5b506100ec6100e7366004610e3a565b610268565b005b3480156100f9575f80fd5b5061010d610108366004610e74565b6103bf565b60405161011a9190610ee2565b60405180910390f35b34801561012e575f80fd5b506100ec61013d366004610f17565b610507565b34801561014d575f80fd5b506100ec61015c366004610f39565b610683565b34801561016c575f80fd5b5061017661022181565b60405190815260200161011a565b34801561018f575f80fd5b506100ec61019e366004610f6a565b6107a1565b3480156101ae575f80fd5b506101b7610854565b6040516001600160a01b03909116815260200161011a565b3480156101da575f80fd5b506100ec61086f565b3480156101ee575f80fd5b506101766101fd366004610fd2565b6108f5565b34801561020d575f80fd5b506100ec61021c366004610f6a565b610b14565b34801561022c575f80fd5b506100ec61023b366004611071565b610bc7565b34801561024b575f80fd5b50610176610df3565b34801561025f575f80fd5b506101b7610e09565b5f8051602061119c833981519152546001600160a01b0316336001600160a01b0316146102a757604051624b0ebd60e41b815260040160405180910390fd5b6040516001600160a01b038381166024830152604482018390525f919085169060640160408051601f198184030181529181526020820180516001600160e01b031663a9059cbb60e01b179052516102ff9190611099565b5f604051808303815f865af19150503d805f8114610338576040519150601f19603f3d011682016040523d82523d5f602084013e61033d565b606091505b50509050806103855760405162461bcd60e51b815260206004820152600f60248201526e151c985b9cd9995c8819985a5b1959608a1b60448201526064015b60405180910390fd5b6103b961039d5f8051602061117c8339815191525490565b6103a89060016110c3565b5f8051602061117c83398151915255565b50505050565b60606103d65f8051602061119c8339815191525490565b6001600160a01b0316336001600160a01b03161461040657604051624b0ebd60e41b815260040160405180910390fd5b5f61041c5f805160206111bc8339815191525490565b90506001600160a01b0381166104445760405162461bcd60e51b815260040161037c906110d6565b5f80826001600160a01b031686866040516104609291906110fd565b5f604051808303815f865af19150503d805f8114610499576040519150601f19603f3d011682016040523d82523d5f602084013e61049e565b606091505b5091509150816104e45760405162461bcd60e51b815260206004820152601160248201527015985d5b1d0818d85b1b0819985a5b1959607a1b604482015260640161037c565b6104fc61039d5f8051602061117c8339815191525490565b925050505b92915050565b5f8051602061119c833981519152546001600160a01b0316336001600160a01b03161461054657604051624b0ebd60e41b815260040160405180910390fd5b5f61055c5f805160206111bc8339815191525490565b90506001600160a01b0381166105845760405162461bcd60e51b815260040161037c906110d6565b604051602481018590526001600160a01b038481166044830152606482018490525f919083169060840160408051601f198184030181529181526020820180516001600160e01b0316631cc6d2f960e31b179052516105e39190611099565b5f604051808303815f865af19150503d805f811461061c576040519150601f19603f3d011682016040523d82523d5f602084013e610621565b606091505b50509050806106645760405162461bcd60e51b815260206004820152600f60248201526e15da5d1a191c985dc819985a5b1959608a1b604482015260640161037c565b61067c61039d5f8051602061117c8339815191525490565b5050505050565b61022146146106a55760405163057f3fa760e51b815260040160405180910390fd5b6001600160a01b0382166106cc57604051630681d31960e51b815260040160405180910390fd5b6001600160a01b0381166106f35760405163bebdc75760e01b815260040160405180910390fd5b610708825f805160206111bc83398151915255565b61071d815f8051602061119c83398151915255565b61073360015f8051602061117c83398151915255565b6040516001600160a01b0383169030907f8800deb8c31293b539eaf5391fcc88280dc58f015c043d65dd5b72a0979a1dd1905f90a36040516001600160a01b0382169030907f840ae875b50d711c2b0916bbe6cf88f87aa6f7968c0a63239825a091cd8a3851905f90a35050565b5f8051602061119c833981519152546001600160a01b0316336001600160a01b0316146107e057604051624b0ebd60e41b815260040160405180910390fd5b6001600160a01b03811661080757604051630681d31960e51b815260040160405180910390fd5b61081c815f805160206111bc83398151915255565b6040516001600160a01b0382169030907f8800deb8c31293b539eaf5391fcc88280dc58f015c043d65dd5b72a0979a1dd1905f90a350565b5f61086a5f805160206111bc8339815191525490565b905090565b3330146108b45760405162461bcd60e51b81526020600482015260136024820152724f6e6c7920454f412063616e207265766f6b6560681b604482015260640161037c565b6108c95f5f805160206111bc83398151915255565b6108de5f5f8051602061119c83398151915255565b6108f35f5f8051602061117c83398151915255565b565b5f61090b5f8051602061119c8339815191525490565b6001600160a01b0316336001600160a01b03161461093b57604051624b0ebd60e41b815260040160405180910390fd5b858414801561094957508582145b61098d5760405162461bcd60e51b8152602060048201526015602482015274082e4e4c2f240d8cadccee8d040dad2e6dac2e8c6d605b1b604482015260640161037c565b600a8611156109d05760405162461bcd60e51b815260206004820152600f60248201526e426174636820746f6f206c6172676560881b604482015260640161037c565b5f5b86811015610ab6575f8888838181106109ed576109ed61110c565b9050602002016020810190610a029190610f6a565b6001600160a01b0316858584818110610a1d57610a1d61110c565b90506020020135888885818110610a3657610a3661110c565b9050602002810190610a489190611120565b604051610a569291906110fd565b5f6040518083038185875af1925050503d805f8114610a90576040519150601f19603f3d011682016040523d82523d5f602084013e610a95565b606091505b505090508015610aad5782610aa981611163565b9350505b506001016109d2565b50610acf61039d5f8051602061117c8339815191525490565b604080518781526020810183905230917f41b62e728bad24c9793175686912a5d3533ba7b6e0ab65afb69d36a7230354d2910160405180910390a29695505050505050565b5f8051602061119c833981519152546001600160a01b0316336001600160a01b031614610b5357604051624b0ebd60e41b815260040160405180910390fd5b6001600160a01b038116610b7a5760405163bebdc75760e01b815260040160405180910390fd5b610b8f815f8051602061119c83398151915255565b6040516001600160a01b0382169030907f840ae875b50d711c2b0916bbe6cf88f87aa6f7968c0a63239825a091cd8a3851905f90a350565b5f8051602061119c833981519152546001600160a01b0316336001600160a01b031614610c0657604051624b0ebd60e41b815260040160405180910390fd5b5f610c1c5f805160206111bc8339815191525490565b90506001600160a01b038116610c445760405162461bcd60e51b815260040161037c906110d6565b6040516001600160a01b038281166024830152604482018490525f919085169060640160408051601f198184030181529181526020820180516001600160e01b031663095ea7b360e01b17905251610c9c9190611099565b5f604051808303815f865af19150503d805f8114610cd5576040519150601f19603f3d011682016040523d82523d5f602084013e610cda565b606091505b5050905080610d1c5760405162461bcd60e51b815260206004820152600e60248201526d105c1c1c9bdd994819985a5b195960921b604482015260640161037c565b6040516001600160a01b0385811660248301526044820185905283169060640160408051601f198184030181529181526020820180516001600160e01b03166311f9fbc960e21b17905251610d719190611099565b5f604051808303815f865af19150503d805f8114610daa576040519150601f19603f3d011682016040523d82523d5f602084013e610daf565b606091505b505080915050806103855760405162461bcd60e51b815260206004820152600e60248201526d11195c1bdcda5d0819985a5b195960921b604482015260640161037c565b5f61086a5f8051602061117c8339815191525490565b5f61086a5f8051602061119c8339815191525490565b80356001600160a01b0381168114610e35575f80fd5b919050565b5f805f60608486031215610e4c575f80fd5b610e5584610e1f565b9250610e6360208501610e1f565b929592945050506040919091013590565b5f8060208385031215610e85575f80fd5b823567ffffffffffffffff811115610e9b575f80fd5b8301601f81018513610eab575f80fd5b803567ffffffffffffffff811115610ec1575f80fd5b856020828401011115610ed2575f80fd5b6020919091019590945092505050565b602081525f82518060208401528060208501604085015e5f604082850101526040601f19601f83011684010191505092915050565b5f805f60608486031215610f29575f80fd5b83359250610e6360208501610e1f565b5f8060408385031215610f4a575f80fd5b610f5383610e1f565b9150610f6160208401610e1f565b90509250929050565b5f60208284031215610f7a575f80fd5b610f8382610e1f565b9392505050565b5f8083601f840112610f9a575f80fd5b50813567ffffffffffffffff811115610fb1575f80fd5b6020830191508360208260051b8501011115610fcb575f80fd5b9250929050565b5f805f805f8060608789031215610fe7575f80fd5b863567ffffffffffffffff811115610ffd575f80fd5b61100989828a01610f8a565b909750955050602087013567ffffffffffffffff811115611028575f80fd5b61103489828a01610f8a565b909550935050604087013567ffffffffffffffff811115611053575f80fd5b61105f89828a01610f8a565b979a9699509497509295939492505050565b5f8060408385031215611082575f80fd5b61108b83610e1f565b946020939093013593505050565b5f82518060208501845e5f920191825250919050565b634e487b7160e01b5f52601160045260245ffd5b80820180821115610501576105016110af565b6020808252600d908201526c15985d5b1d081b9bdd081cd95d609a1b604082015260600190565b818382375f9101908152919050565b634e487b7160e01b5f52603260045260245ffd5b5f808335601e19843603018112611135575f80fd5b83018035915067ffffffffffffffff82111561114f575f80fd5b602001915036819003821315610fcb575f80fd5b5f60018201611174576111746110af565b506001019056fea001ad2feb2591080922648d07743810dc2f4b911ff9ab6840f8038e4f0fa20521dc22757a215e76fdf898f1b60e8c04775d2c0a2b962ca6d542d352a8f157e1d41fabdbb510cebf72852026fcfe36a2b9979241a6da16098bfd08c916c950efa2646970667358221220f84a3ec5641e057f4becf2047d527358a5ae3c63d315c606c22c52f02eef6d8364736f6c634300081a0033","linkReferences":{}},"methodIdentifiers":{"FLOW_CHAIN_ID()":"4fc66565","depositToETF(address,uint256)":"cc29abd3","executeBatch(address[],bytes[],uint256[])":"b77ce564","executeVaultCall(bytes)":"2c7829f2","getAgent()":"f551eb19","getNonce()":"d087d288","getVault()":"8d928af8","initialize(address,address)":"485cc955","revokeDelegation()":"a4d31805","setAgent(address)":"bcf685ed","setVault(address)":"6817031b","transferFunds(address,address,uint256)":"1501bf03","withdrawFromETF(uint256,address,uint256)":"418acf2c"},"id":36}