{"abi":[{"type":"constructor","inputs":[{"name":"name","type":"string","internalType":"string"},{"name":"symbol","type":"string","internalType":"string"},{"name":"_agentWallet","type":"address","internalType":"address"},{"name":"_owner","type":"address","internalType":"address"}],"stateMutability":"nonpayable"},{"type":"receive","stateMutability":"payable"},{"type":"function","name":"BASIS_POINTS","inputs":[],"outputs":[{"name":"","type":"uint256","internalType":"uint256"}],"stateMutability":"view"},{"type":"function","name":"FLOW_CHAIN_ID","inputs":[],"outputs":[{"name":"","type":"uint256","internalType":"uint256"}],"stateMutability":"view"},{"type":"function","name":"MAX_ASSETS","inputs":[],"outputs":[{"name":"","type":"uint256","internalType":"uint256"}],"stateMutability":"view"},{"type":"function","name":"MIN_DEPOSIT","inputs":[],"outputs":[{"name":"","type":"uint256","internalType":"uint256"}],"stateMutability":"view"},{"type":"function","name":"addAsset","inputs":[{"name":"token","type":"address","internalType":"address"},{"name":"targetWeight","type":"uint256","internalType":"uint256"}],"outputs":[],"stateMutability":"nonpayable"},{"type":"function","name":"addChainVault","inputs":[{"name":"chainId","type":"uint256","internalType":"uint256"},{"name":"vaultAddress","type":"address","internalType":"address"}],"outputs":[],"stateMutability":"nonpayable"},{"type":"function","name":"agentWallet","inputs":[],"outputs":[{"name":"","type":"address","internalType":"address"}],"stateMutability":"view"},{"type":"function","name":"allowance","inputs":[{"name":"owner","type":"address","internalType":"address"},{"name":"spender","type":"address","internalType":"address"}],"outputs":[{"name":"","type":"uint256","internalType":"uint256"}],"stateMutability":"view"},{"type":"function","name":"approve","inputs":[{"name":"spender","type":"address","internalType":"address"},{"name":"value","type":"uint256","internalType":"uint256"}],"outputs":[{"name":"","type":"bool","internalType":"bool"}],"stateMutability":"nonpayable"},{"type":"function","name":"assetIndex","inputs":[{"name":"","type":"address","internalType":"address"}],"outputs":[{"name":"","type":"uint256","internalType":"uint256"}],"stateMutability":"view"},{"type":"function","name":"assets","inputs":[{"name":"","type":"uint256","internalType":"uint256"}],"outputs":[{"name":"token","type":"address","internalType":"address"},{"name":"targetWeight","type":"uint256","internalType":"uint256"},{"name":"balance","type":"uint256","internalType":"uint256"},{"name":"active","type":"bool","internalType":"bool"}],"stateMutability":"view"},{"type":"function","name":"authorizedAgents","inputs":[{"name":"","type":"address","internalType":"address"}],"outputs":[{"name":"","type":"bool","internalType":"bool"}],"stateMutability":"view"},{"type":"function","name":"balanceOf","inputs":[{"name":"account","type":"address","internalType":"address"}],"outputs":[{"name":"","type":"uint256","internalType":"uint256"}],"stateMutability":"view"},{"type":"function","name":"chainVaults","inputs":[{"name":"","type":"uint256","internalType":"uint256"}],"outputs":[{"name":"","type":"address","internalType":"address"}],"stateMutability":"view"},{"type":"function","name":"decimals","inputs":[],"outputs":[{"name":"","type":"uint8","internalType":"uint8"}],"stateMutability":"view"},{"type":"function","name":"deposit","inputs":[{"name":"token","type":"address","internalType":"address"},{"name":"amount","type":"uint256","internalType":"uint256"}],"outputs":[{"name":"shares","type":"uint256","internalType":"uint256"}],"stateMutability":"nonpayable"},{"type":"function","name":"emergencyPause","inputs":[],"outputs":[],"stateMutability":"nonpayable"},{"type":"function","name":"emergencyRecoverToken","inputs":[{"name":"token","type":"address","internalType":"address"},{"name":"amount","type":"uint256","internalType":"uint256"}],"outputs":[],"stateMutability":"nonpayable"},{"type":"function","name":"emergencyUnpause","inputs":[],"outputs":[],"stateMutability":"nonpayable"},{"type":"function","name":"getActiveAssets","inputs":[],"outputs":[{"name":"activeAssets","type":"address[]","internalType":"address[]"}],"stateMutability":"view"},{"type":"function","name":"getAsset","inputs":[{"name":"token","type":"address","internalType":"address"}],"outputs":[{"name":"asset","type":"tuple","internalType":"struct FlowETFVault.Asset","components":[{"name":"token","type":"address","internalType":"address"},{"name":"targetWeight","type":"uint256","internalType":"uint256"},{"name":"balance","type":"uint256","internalType":"uint256"},{"name":"active","type":"bool","internalType":"bool"}]}],"stateMutability":"view"},{"type":"function","name":"getNetAssetValue","inputs":[],"outputs":[{"name":"nav","type":"uint256","internalType":"uint256"}],"stateMutability":"view"},{"type":"function","name":"getTotalTargetWeight","inputs":[],"outputs":[{"name":"totalWeight","type":"uint256","internalType":"uint256"}],"stateMutability":"view"},{"type":"function","name":"getTotalValue","inputs":[],"outputs":[{"name":"totalValue","type":"uint256","internalType":"uint256"}],"stateMutability":"view"},{"type":"function","name":"lastRebalanceTime","inputs":[],"outputs":[{"name":"","type":"uint256","internalType":"uint256"}],"stateMutability":"view"},{"type":"function","name":"moveFundsToProtocol","inputs":[{"name":"protocol","type":"address","internalType":"address"},{"name":"token","type":"address","internalType":"address"},{"name":"amount","type":"uint256","internalType":"uint256"},{"name":"data","type":"bytes","internalType":"bytes"}],"outputs":[],"stateMutability":"nonpayable"},{"type":"function","name":"name","inputs":[],"outputs":[{"name":"","type":"string","internalType":"string"}],"stateMutability":"view"},{"type":"function","name":"owner","inputs":[],"outputs":[{"name":"","type":"address","internalType":"address"}],"stateMutability":"view"},{"type":"function","name":"paused","inputs":[],"outputs":[{"name":"","type":"bool","internalType":"bool"}],"stateMutability":"view"},{"type":"function","name":"removeAsset","inputs":[{"name":"token","type":"address","internalType":"address"}],"outputs":[],"stateMutability":"nonpayable"},{"type":"function","name":"renounceOwnership","inputs":[],"outputs":[],"stateMutability":"nonpayable"},{"type":"function","name":"retrieveFundsFromProtocol","inputs":[{"name":"protocol","type":"address","internalType":"address"},{"name":"token","type":"address","internalType":"address"},{"name":"expectedAmount","type":"uint256","internalType":"uint256"},{"name":"data","type":"bytes","internalType":"bytes"}],"outputs":[],"stateMutability":"nonpayable"},{"type":"function","name":"setAgentAuthorization","inputs":[{"name":"agent","type":"address","internalType":"address"},{"name":"authorized","type":"bool","internalType":"bool"}],"outputs":[],"stateMutability":"nonpayable"},{"type":"function","name":"setAgentWallet","inputs":[{"name":"newAgent","type":"address","internalType":"address"}],"outputs":[],"stateMutability":"nonpayable"},{"type":"function","name":"supportedChains","inputs":[{"name":"","type":"uint256","internalType":"uint256"}],"outputs":[{"name":"","type":"bool","internalType":"bool"}],"stateMutability":"view"},{"type":"function","name":"supportedTokens","inputs":[{"name":"","type":"address","internalType":"address"}],"outputs":[{"name":"","type":"bool","internalType":"bool"}],"stateMutability":"view"},{"type":"function","name":"symbol","inputs":[],"outputs":[{"name":"","type":"string","internalType":"string"}],"stateMutability":"view"},{"type":"function","name":"totalSupply","inputs":[],"outputs":[{"name":"","type":"uint256","internalType":"uint256"}],"stateMutability":"view"},{"type":"function","name":"totalValueLocked","inputs":[],"outputs":[{"name":"","type":"uint256","internalType":"uint256"}],"stateMutability":"view"},{"type":"function","name":"transfer","inputs":[{"name":"to","type":"address","internalType":"address"},{"name":"value","type":"uint256","internalType":"uint256"}],"outputs":[{"name":"","type":"bool","internalType":"bool"}],"stateMutability":"nonpayable"},{"type":"function","name":"transferFrom","inputs":[{"name":"from","type":"address","internalType":"address"},{"name":"to","type":"address","internalType":"address"},{"name":"value","type":"uint256","internalType":"uint256"}],"outputs":[{"name":"","type":"bool","internalType":"bool"}],"stateMutability":"nonpayable"},{"type":"function","name":"transferOwnership","inputs":[{"name":"newOwner","type":"address","internalType":"address"}],"outputs":[],"stateMutability":"nonpayable"},{"type":"function","name":"transferToChain","inputs":[{"name":"chainId","type":"uint256","internalType":"uint256"},{"name":"token","type":"address","internalType":"address"},{"name":"amount","type":"uint256","internalType":"uint256"}],"outputs":[],"stateMutability":"nonpayable"},{"type":"function","name":"updateAssetBalance","inputs":[{"name":"token","type":"address","internalType":"address"}],"outputs":[],"stateMutability":"nonpayable"},{"type":"function","name":"withdraw","inputs":[{"name":"shares","type":"uint256","internalType":"uint256"},{"name":"tokenOut","type":"address","internalType":"address"},{"name":"minAmountOut","type":"uint256","internalType":"uint256"}],"outputs":[{"name":"amountOut","type":"uint256","internalType":"uint256"}],"stateMutability":"nonpayable"},{"type":"event","name":"AgentAuthorized","inputs":[{"name":"agent","type":"address","indexed":true,"internalType":"address"},{"name":"authorized","type":"bool","indexed":false,"internalType":"bool"}],"anonymous":false},{"type":"event","name":"AgentWalletSet","inputs":[{"name":"oldAgent","type":"address","indexed":true,"internalType":"address"},{"name":"newAgent","type":"address","indexed":true,"internalType":"address"}],"anonymous":false},{"type":"event","name":"Approval","inputs":[{"name":"owner","type":"address","indexed":true,"internalType":"address"},{"name":"spender","type":"address","indexed":true,"internalType":"address"},{"name":"value","type":"uint256","indexed":false,"internalType":"uint256"}],"anonymous":false},{"type":"event","name":"AssetAdded","inputs":[{"name":"token","type":"address","indexed":true,"internalType":"address"},{"name":"targetWeight","type":"uint256","indexed":false,"internalType":"uint256"}],"anonymous":false},{"type":"event","name":"AssetRebalanced","inputs":[{"name":"token","type":"address","indexed":true,"internalType":"address"},{"name":"newBalance","type":"uint256","indexed":false,"internalType":"uint256"}],"anonymous":false},{"type":"event","name":"AssetRemoved","inputs":[{"name":"token","type":"address","indexed":true,"internalType":"address"}],"anonymous":false},{"type":"event","name":"CrossChainTransfer","inputs":[{"name":"chainId","type":"uint256","indexed":true,"internalType":"uint256"},{"name":"token","type":"address","indexed":true,"internalType":"address"},{"name":"amount","type":"uint256","indexed":false,"internalType":"uint256"}],"anonymous":false},{"type":"event","name":"FundsMovedToProtocol","inputs":[{"name":"protocol","type":"address","indexed":true,"internalType":"address"},{"name":"token","type":"address","indexed":true,"internalType":"address"},{"name":"amount","type":"uint256","indexed":false,"internalType":"uint256"}],"anonymous":false},{"type":"event","name":"FundsRetrievedFromProtocol","inputs":[{"name":"protocol","type":"address","indexed":true,"internalType":"address"},{"name":"token","type":"address","indexed":true,"internalType":"address"},{"name":"amount","type":"uint256","indexed":false,"internalType":"uint256"}],"anonymous":false},{"type":"event","name":"OwnershipTransferred","inputs":[{"name":"previousOwner","type":"address","indexed":true,"internalType":"address"},{"name":"newOwner","type":"address","indexed":true,"internalType":"address"}],"anonymous":false},{"type":"event","name":"Paused","inputs":[{"name":"account","type":"address","indexed":false,"internalType":"address"}],"anonymous":false},{"type":"event","name":"Transfer","inputs":[{"name":"from","type":"address","indexed":true,"internalType":"address"},{"name":"to","type":"address","indexed":true,"internalType":"address"},{"name":"value","type":"uint256","indexed":false,"internalType":"uint256"}],"anonymous":false},{"type":"event","name":"Unpaused","inputs":[{"name":"account","type":"address","indexed":false,"internalType":"address"}],"anonymous":false},{"type":"error","name":"AssetNotSupported","inputs":[]},{"type":"error","name":"ERC20InsufficientAllowance","inputs":[{"name":"spender","type":"address","internalType":"address"},{"name":"allowance","type":"uint256","internalType":"uint256"},{"name":"needed","type":"uint256","internalType":"uint256"}]},{"type":"error","name":"ERC20InsufficientBalance","inputs":[{"name":"sender","type":"address","internalType":"address"},{"name":"balance","type":"uint256","internalType":"uint256"},{"name":"needed","type":"uint256","internalType":"uint256"}]},{"type":"error","name":"ERC20InvalidApprover","inputs":[{"name":"approver","type":"address","internalType":"address"}]},{"type":"error","name":"ERC20InvalidReceiver","inputs":[{"name":"receiver","type":"address","internalType":"address"}]},{"type":"error","name":"ERC20InvalidSender","inputs":[{"name":"sender","type":"address","internalType":"address"}]},{"type":"error","name":"ERC20InvalidSpender","inputs":[{"name":"spender","type":"address","internalType":"address"}]},{"type":"error","name":"EnforcedPause","inputs":[]},{"type":"error","name":"ExpectedPause","inputs":[]},{"type":"error","name":"InsufficientBalance","inputs":[]},{"type":"error","name":"InvalidAgent","inputs":[]},{"type":"error","name":"InvalidAsset","inputs":[]},{"type":"error","name":"InvalidChain","inputs":[]},{"type":"error","name":"InvalidWeight","inputs":[]},{"type":"error","name":"OwnableInvalidOwner","inputs":[{"name":"owner","type":"address","internalType":"address"}]},{"type":"error","name":"OwnableUnauthorizedAccount","inputs":[{"name":"account","type":"address","internalType":"address"}]},{"type":"error","name":"ReentrancyGuardReentrantCall","inputs":[]},{"type":"error","name":"SafeERC20FailedOperation","inputs":[{"name":"token","type":"address","internalType":"address"}]},{"type":"error","name":"TooManyAssets","inputs":[]},{"type":"error","name":"Unauthorized","inputs":[]}],"bytecode":{"object":"0x608060405234801561000f575f80fd5b50604051612f84380380612f8483398101604081905261002e9161024d565b808484600361003d8382610356565b50600461004a8282610356565b5050506001600160a01b03811661007a57604051631e4fbdf760e01b81525f600482015260240160405180910390fd5b61008381610144565b50600160065546610221146100ab5760405163057f3fa760e51b815260040160405180910390fd5b6001600160a01b0382166100d25760405163bebdc75760e01b815260040160405180910390fd5b60078054610100600160a81b0319166101006001600160a01b038516908102919091179091555f81815260086020526040808220805460ff1916600117905542600f55517fa6521281eca0d10c357872742171561a1301ead39a09fde4b3d5430644584bf8908290a350505050610410565b600580546001600160a01b038381166001600160a01b0319831681179093556040519116919082907f8be0079c531659141344cd1fd0a4f28419497f9722a3daafe3b4186f6b6457e0905f90a35050565b634e487b7160e01b5f52604160045260245ffd5b5f82601f8301126101b8575f80fd5b81516001600160401b038111156101d1576101d1610195565b604051601f8201601f19908116603f011681016001600160401b03811182821017156101ff576101ff610195565b604052818152838201602001851015610216575f80fd5b8160208501602083015e5f918101602001919091529392505050565b80516001600160a01b0381168114610248575f80fd5b919050565b5f805f8060808587031215610260575f80fd5b84516001600160401b03811115610275575f80fd5b610281878288016101a9565b602087015190955090506001600160401b0381111561029e575f80fd5b6102aa878288016101a9565b9350506102b960408601610232565b91506102c760608601610232565b905092959194509250565b600181811c908216806102e657607f821691505b60208210810361030457634e487b7160e01b5f52602260045260245ffd5b50919050565b601f82111561035157805f5260205f20601f840160051c8101602085101561032f5750805b601f840160051c820191505b8181101561034e575f815560010161033b565b50505b505050565b81516001600160401b0381111561036f5761036f610195565b6103838161037d84546102d2565b8461030a565b6020601f8211600181146103b5575f831561039e5750848201515b5f19600385901b1c1916600184901b17845561034e565b5f84815260208120601f198516915b828110156103e457878501518255602094850194600190920191016103c4565b508482101561040157868401515f19600387901b60f8161c191681555b50505050600190811b01905550565b612b678061041d5f395ff3fe60806040526004361061026d575f3560e01c806368c4ac261161014a578063aea57ee7116100be578063e1e158a511610078578063e1e158a5146107d9578063e1f1c4a7146107f3578063e63697c814610808578063ec18154e14610827578063efd760651461083c578063f2fde38b1461086a575f80fd5b8063aea57ee7146106e3578063c4dfd64514610702578063caa648b414610721578063cf35bdd014610735578063d9ca21d514610780578063dd62ed3e14610795575f80fd5b8063811064071161010f57806381106407146106215780638d3c5599146106405780638da5cb5b1461065f57806394665f331461067c57806395d89b41146106b0578063a9059cbb146106c4575f80fd5b806368c4ac261461057857806370a08231146105a6578063715018a6146105da57806376b1d08f146105ee5780637902019414610602575f80fd5b80633f6dfdbc116101e157806351858e27116101a657806351858e27146104cd578063548d496f146104e157806358c1e4041461050f5780635c975abb1461052e5780636639a81d1461054557806366a6a4bd14610559575f80fd5b80633f6dfdbc1461042a57806347e7ef24146104665780634a4e3bd5146104855780634a5e42b1146104995780634fc66565146104b8575f80fd5b806318160ddd1161023257806318160ddd1461034c5780631ec747c914610360578063206d5f8b1461037457806323b872dd1461039357806330b8b2c6146103b2578063313ce5671461040f575f80fd5b806306fdde03146102785780630911e864146102a2578063095ea7b3146102c35780630fd8aee8146102f257806314526ea214610313575f80fd5b3661027457005b5f80fd5b348015610283575f80fd5b5061028c610889565b60405161029991906127ba565b60405180910390f35b3480156102ad575f80fd5b506102c16102bc36600461280a565b610919565b005b3480156102ce575f80fd5b506102e26102dd366004612843565b61097f565b6040519015158152602001610299565b3480156102fd575f80fd5b50610306610998565b604051610299919061286b565b34801561031e575f80fd5b5061033e61032d3660046128b6565b600a6020525f908152604090205481565b604051908152602001610299565b348015610357575f80fd5b5060025461033e565b34801561036b575f80fd5b5061033e610ae3565b34801561037f575f80fd5b506102c161038e3660046128cf565b610b5b565b34801561039e575f80fd5b506102e26103ad366004612964565b610e70565b3480156103bd575f80fd5b506103d16103cc3660046128b6565b610e95565b604051610299919081516001600160a01b03168152602080830151908201526040808301519082015260609182015115159181019190915260800190565b34801561041a575f80fd5b5060405160128152602001610299565b348015610435575f80fd5b5060075461044e9061010090046001600160a01b031681565b6040516001600160a01b039091168152602001610299565b348015610471575f80fd5b5061033e610480366004612843565b610f73565b348015610490575f80fd5b506102c16110dd565b3480156104a4575f80fd5b506102c16104b33660046128b6565b6110ef565b3480156104c3575f80fd5b5061033e61022181565b3480156104d8575f80fd5b506102c1611211565b3480156104ec575f80fd5b506102e26104fb36600461299e565b600d6020525f908152604090205460ff1681565b34801561051a575f80fd5b506102c16105293660046129b5565b611221565b348015610539575f80fd5b5060075460ff166102e2565b348015610550575f80fd5b5061033e611346565b348015610564575f80fd5b506102c1610573366004612843565b611394565b348015610583575f80fd5b506102e26105923660046128b6565b600b6020525f908152604090205460ff1681565b3480156105b1575f80fd5b5061033e6105c03660046128b6565b6001600160a01b03165f9081526020819052604090205490565b3480156105e5575f80fd5b506102c161163c565b3480156105f9575f80fd5b5061033e600a81565b34801561060d575f80fd5b506102c161061c366004612843565b61164d565b34801561062c575f80fd5b506102c161063b3660046128b6565b61167f565b34801561064b575f80fd5b506102c161065a3660046128cf565b6117ed565b34801561066a575f80fd5b506005546001600160a01b031661044e565b348015610687575f80fd5b5061044e61069636600461299e565b600c6020525f90815260409020546001600160a01b031681565b3480156106bb575f80fd5b5061028c611aaa565b3480156106cf575f80fd5b506102e26106de366004612843565b611ab9565b3480156106ee575f80fd5b506102c16106fd3660046128b6565b611ac6565b34801561070d575f80fd5b506102c161071c3660046129df565b611b69565b34801561072c575f80fd5b5061033e611da6565b348015610740575f80fd5b5061075461074f36600461299e565b611e1a565b604080516001600160a01b03909516855260208501939093529183015215156060820152608001610299565b34801561078b575f80fd5b5061033e600f5481565b3480156107a0575f80fd5b5061033e6107af366004612a01565b6001600160a01b039182165f90815260016020908152604080832093909416825291909152205490565b3480156107e4575f80fd5b5061033e66038d7ea4c6800081565b3480156107fe575f80fd5b5061033e61271081565b348015610813575f80fd5b5061033e6108223660046129df565b611e5f565b348015610832575f80fd5b5061033e600e5481565b348015610847575f80fd5b506102e26108563660046128b6565b60086020525f908152604090205460ff1681565b348015610875575f80fd5b506102c16108843660046128b6565b6120d8565b60606003805461089890612a29565b80601f01602080910402602001604051908101604052809291908181526020018280546108c490612a29565b801561090f5780601f106108e65761010080835404028352916020019161090f565b820191905f5260205f20905b8154815290600101906020018083116108f257829003601f168201915b5050505050905090565b610921612115565b6001600160a01b0382165f81815260086020908152604091829020805460ff191685151590811790915591519182527f1b06338d0edf2ba8ccee31e466ab37b376418209af6a85c55c51e89a51e33bde910160405180910390a25050565b5f3361098c818585612142565b60019150505b92915050565b60605f805b6009548110156109eb57600981815481106109ba576109ba612a5b565b5f91825260209091206003600490920201015460ff16156109e357816109df81612a83565b9250505b60010161099d565b508067ffffffffffffffff811115610a0557610a05612a9b565b604051908082528060200260200182016040528015610a2e578160200160208202803683370190505b5091505f805b600954811015610add5760098181548110610a5157610a51612a5b565b5f91825260209091206003600490920201015460ff1615610ad55760098181548110610a7f57610a7f612a5b565b5f91825260209091206004909102015484516001600160a01b0390911690859084908110610aaf57610aaf612a5b565b6001600160a01b039092166020928302919091019091015281610ad181612a83565b9250505b600101610a34565b50505090565b5f805b600954811015610b575760098181548110610b0357610b03612a5b565b5f91825260209091206003600490920201015460ff1615610b4f5760098181548110610b3157610b31612a5b565b905f5260205f2090600402016001015482610b4c9190612aaf565b91505b600101610ae6565b5090565b60075461010090046001600160a01b03163314801590610b8a5750335f9081526008602052604090205460ff16155b15610ba7576040516282b42960e81b815260040160405180910390fd5b6001600160a01b0384165f908152600b6020526040902054849060ff16610be15760405163981a2a2b60e01b815260040160405180910390fd5b610be9612154565b6040516370a0823160e01b81523060048201525f906001600160a01b038716906370a0823190602401602060405180830381865afa158015610c2d573d5f803e3d5ffd5b505050506040513d601f19601f82011682018060405250810190610c519190612ac2565b90505f876001600160a01b03168585604051610c6e929190612ad9565b5f604051808303815f865af19150503d805f8114610ca7576040519150601f19603f3d011682016040523d82523d5f602084013e610cac565b606091505b5050905080610cf95760405162461bcd60e51b8152602060048201526014602482015273141c9bdd1bd8dbdb0818d85b1b0819985a5b195960621b60448201526064015b60405180910390fd5b6040516370a0823160e01b81523060048201525f906001600160a01b038916906370a0823190602401602060405180830381865afa158015610d3d573d5f803e3d5ffd5b505050506040513d601f19601f82011682018060405250810190610d619190612ac2565b90505f610d6e8483612ae8565b905087811015610db95760405162461bcd60e51b8152602060048201526016602482015275125b9cdd59999a58da595b9d081c995d1c9a595d985b60521b6044820152606401610cf0565b6001600160a01b0389165f908152600a60205260409020546009805483919083908110610de857610de8612a5b565b905f5260205f2090600402016002015f828254610e059190612aaf565b92505081905550896001600160a01b03168b6001600160a01b03167f6efd74cff3c768ce977cd3eb0990bd675d9cbd0faa89f2aee9ee564de6f73c0b84604051610e5191815260200190565b60405180910390a35050505050610e686001600655565b505050505050565b5f33610e7d85828561217e565b610e888585856121fa565b60019150505b9392505050565b604080516080810182525f8082526020808301829052828401829052606083018290526001600160a01b0385168252600b90529190912054829060ff16610eef5760405163981a2a2b60e01b815260040160405180910390fd5b6001600160a01b0383165f908152600a6020526040902054600980549091908110610f1c57610f1c612a5b565b5f91825260209182902060408051608081018252600490930290910180546001600160a01b0316835260018101549383019390935260028301549082015260039091015460ff161515606082015291505b50919050565b5f610f7c612154565b610f84612257565b6001600160a01b0383165f908152600b6020526040902054839060ff16610fbe5760405163981a2a2b60e01b815260040160405180910390fd5b66038d7ea4c680008310156110085760405162461bcd60e51b815260206004820152601060248201526f105b5bdd5b9d081d1bdbc81cdb585b1b60821b6044820152606401610cf0565b5f61101260025490565b9050805f0361102357839250611047565b5f61102c611da6565b9050806110398387612afb565b6110439190612b12565b9350505b61105c6001600160a01b03861633308761227b565b6001600160a01b0385165f908152600a6020526040902054600980548691908390811061108b5761108b612a5b565b905f5260205f2090600402016002015f8282546110a89190612aaf565b9250508190555084600e5f8282546110c09190612aaf565b909155506110d0905033856122e2565b5050506109926001600655565b6110e5612115565b6110ed612316565b565b60075461010090046001600160a01b0316331480159061111e5750335f9081526008602052604090205460ff16155b1561113b576040516282b42960e81b815260040160405180910390fd5b6001600160a01b0381165f908152600b6020526040902054819060ff166111755760405163981a2a2b60e01b815260040160405180910390fd5b6001600160a01b0382165f908152600a602052604081205460098054919291839081106111a4576111a4612a5b565b5f9182526020808320600360049093020191909101805493151560ff199485161790556001600160a01b038616808352600b9091526040808320805490941690935591517f37803e2125c48ee96c38ddf04e826daf335b0e1603579040fd275aba6d06b6fc9190a2505050565b611219612115565b6110ed612368565b60075461010090046001600160a01b031633148015906112505750335f9081526008602052604090205460ff16155b1561126d576040516282b42960e81b815260040160405180910390fd5b4682036112bc5760405162461bcd60e51b815260206004820152601860248201527f43616e6e6f74206164642063757272656e7420636861696e00000000000000006044820152606401610cf0565b6001600160a01b0381166113025760405162461bcd60e51b815260206004820152600d60248201526c125b9d985b1a59081d985d5b1d609a1b6044820152606401610cf0565b5f918252600d60209081526040808420805460ff19166001179055600c90915290912080546001600160a01b039092166001600160a01b0319909216919091179055565b5f8061135160025490565b9050805f0361136957670de0b6b3a764000091505090565b80611372611da6565b61138490670de0b6b3a7640000612afb565b61138e9190612b12565b91505090565b60075461010090046001600160a01b031633148015906113c35750335f9081526008602052604090205460ff16155b156113e0576040516282b42960e81b815260040160405180910390fd5b6001600160a01b03821661140757604051636448d6e960e11b815260040160405180910390fd5b801580611415575061271081115b156114335760405163585b926360e01b815260040160405180910390fd5b6001600160a01b0382165f908152600b602052604090205460ff161561146c57604051636448d6e960e11b815260040160405180910390fd5b600954600a1161148f5760405163df8153c760e01b815260040160405180910390fd5b5f81611499610ae3565b6114a39190612aaf565b90506127108111156114c85760405163585b926360e01b815260040160405180910390fd5b604080516080810182526001600160a01b038581168252602082018581525f9383018481526001606085018181526009805480840182559781905295517f6e1540171b6c0c960b71a7020d9f60077f6af931a8bbf590da0223dacf75c7af600490980297880180546001600160a01b031916919096161790945591517f6e1540171b6c0c960b71a7020d9f60077f6af931a8bbf590da0223dacf75c7b0860155517f6e1540171b6c0c960b71a7020d9f60077f6af931a8bbf590da0223dacf75c7b185015590517f6e1540171b6c0c960b71a7020d9f60077f6af931a8bbf590da0223dacf75c7b2909301805460ff191693151593909317909255546115ce9190612ae8565b6001600160a01b0384165f818152600a6020908152604080832094909455600b9052829020805460ff1916600117905590517f66ace591f7c88075839f4a0246420d0cc8a34cbe9a924cd0e1ca63c336344f4b9061162f9085815260200190565b60405180910390a2505050565b611644612115565b6110ed5f6123a5565b611655612115565b61167b61166a6005546001600160a01b031690565b6001600160a01b03841690836123f6565b5050565b60075461010090046001600160a01b031633148015906116ae5750335f9081526008602052604090205460ff16155b156116cb576040516282b42960e81b815260040160405180910390fd5b6001600160a01b0381165f908152600b6020526040902054819060ff166117055760405163981a2a2b60e01b815260040160405180910390fd5b6001600160a01b0382165f818152600a60205260408082205490516370a0823160e01b81523060048201529092906370a0823190602401602060405180830381865afa158015611757573d5f803e3d5ffd5b505050506040513d601f19601f8201168201806040525081019061177b9190612ac2565b9050806009838154811061179157611791612a5b565b905f5260205f20906004020160020181905550836001600160a01b03167f68592f0cbf2b41cf79e1d0a6c7e6510d330f6d3ff52696c7ef0c0ee3b89aecc8826040516117df91815260200190565b60405180910390a250505050565b60075461010090046001600160a01b0316331480159061181c5750335f9081526008602052604090205460ff16155b15611839576040516282b42960e81b815260040160405180910390fd5b6001600160a01b0384165f908152600b6020526040902054849060ff166118735760405163981a2a2b60e01b815260040160405180910390fd5b61187b612154565b6001600160a01b0386166118c45760405162461bcd60e51b815260206004820152601060248201526f125b9d985b1a59081c1c9bdd1bd8dbdb60821b6044820152606401610cf0565b6001600160a01b0385165f908152600a602052604090205460098054869190839081106118f3576118f3612a5b565b905f5260205f2090600402016002015410156119515760405162461bcd60e51b815260206004820152601a60248201527f496e73756666696369656e742061737365742062616c616e63650000000000006044820152606401610cf0565b846009828154811061196557611965612a5b565b905f5260205f2090600402016002015f8282546119829190612ae8565b9091555061199c90506001600160a01b0387168887612427565b5f876001600160a01b031685856040516119b7929190612ad9565b5f604051808303815f865af19150503d805f81146119f0576040519150601f19603f3d011682016040523d82523d5f602084013e6119f5565b606091505b5050905080611a3d5760405162461bcd60e51b8152602060048201526014602482015273141c9bdd1bd8dbdb0818d85b1b0819985a5b195960621b6044820152606401610cf0565b611a516001600160a01b038816895f612427565b866001600160a01b0316886001600160a01b03167f98c4830f81855f12250fc11ff34ca14d1be29dab044f8117e0bac1d53fb1621d88604051611a9691815260200190565b60405180910390a35050610e686001600655565b60606004805461089890612a29565b5f3361098c8185856121fa565b611ace612115565b6001600160a01b038116611af55760405163bebdc75760e01b815260040160405180910390fd5b600780546001600160a01b03838116610100818102610100600160a81b03198516179094555f81815260086020526040808220805460ff1916600117905551949093049190911692909183917fa6521281eca0d10c357872742171561a1301ead39a09fde4b3d5430644584bf89190a35050565b60075461010090046001600160a01b03163314801590611b985750335f9081526008602052604090205460ff16155b15611bb5576040516282b42960e81b815260040160405180910390fd5b6001600160a01b0382165f908152600b6020526040902054829060ff16611bef5760405163981a2a2b60e01b815260040160405180910390fd5b5f848152600d602052604090205460ff16611c425760405162461bcd60e51b815260206004820152601360248201527210da185a5b881b9bdd081cdd5c1c1bdc9d1959606a1b6044820152606401610cf0565b5f848152600c60205260409020546001600160a01b0316611ca55760405162461bcd60e51b815260206004820152601860248201527f4e6f207661756c74206f6e2074617267657420636861696e00000000000000006044820152606401610cf0565b6001600160a01b0383165f908152600a60205260409020546009805484919083908110611cd457611cd4612a5b565b905f5260205f209060040201600201541015611d295760405162461bcd60e51b8152602060048201526014602482015273496e73756666696369656e742062616c616e636560601b6044820152606401610cf0565b8260098281548110611d3d57611d3d612a5b565b905f5260205f2090600402016002015f828254611d5a9190612ae8565b90915550506040518381526001600160a01b0385169086907f1d7bef9e5ec6dc7b0e99c5c9aa632d42f2028d746471d670971caf281c5273739060200160405180910390a35050505050565b5f805b600954811015610b575760098181548110611dc657611dc6612a5b565b5f91825260209091206003600490920201015460ff1615611e125760098181548110611df457611df4612a5b565b905f5260205f2090600402016002015482611e0f9190612aaf565b91505b600101611da9565b60098181548110611e29575f80fd5b5f91825260209091206004909102018054600182015460028301546003909301546001600160a01b039092169350919060ff1684565b5f611e68612154565b611e70612257565b6001600160a01b0383165f908152600b6020526040902054839060ff16611eaa5760405163981a2a2b60e01b815260040160405180910390fd5b5f8511611eea5760405162461bcd60e51b815260206004820152600e60248201526d496e76616c69642073686172657360901b6044820152606401610cf0565b335f90815260208190526040902054851115611f3e5760405162461bcd60e51b8152602060048201526013602482015272496e73756666696369656e742073686172657360681b6044820152606401610cf0565b5f611f4860025490565b90505f611f53611da6565b90505f82611f61838a612afb565b611f6b9190612b12565b6001600160a01b0388165f908152600a602052604081205460098054939450909283908110611f9c57611f9c612a5b565b905f5260205f209060040201600201549050838184611fbb9190612afb565b611fc59190612b12565b96508787101561200b5760405162461bcd60e51b81526020600482015260116024820152700a6d8d2e0e0c2ceca40e8dede40d0d2ced607b1b6044820152606401610cf0565b8681101561205b5760405162461bcd60e51b815260206004820152601a60248201527f496e73756666696369656e742061737365742062616c616e63650000000000006044820152606401610cf0565b866009838154811061206f5761206f612a5b565b905f5260205f2090600402016002015f82825461208c9190612ae8565b9250508190555082600e5f8282546120a49190612ae8565b909155506120b49050338b6124b6565b6120c86001600160a01b038a1633896123f6565b505050505050610e8e6001600655565b6120e0612115565b6001600160a01b03811661210957604051631e4fbdf760e01b81525f6004820152602401610cf0565b612112816123a5565b50565b6005546001600160a01b031633146110ed5760405163118cdaa760e01b8152336004820152602401610cf0565b61214f83838360016124ea565b505050565b60026006540361217757604051633ee5aeb560e01b815260040160405180910390fd5b6002600655565b6001600160a01b038381165f908152600160209081526040808320938616835292905220545f198110156121f457818110156121e657604051637dc7a0d960e11b81526001600160a01b03841660048201526024810182905260448101839052606401610cf0565b6121f484848484035f6124ea565b50505050565b6001600160a01b03831661222357604051634b637e8f60e11b81525f6004820152602401610cf0565b6001600160a01b03821661224c5760405163ec442f0560e01b81525f6004820152602401610cf0565b61214f8383836125bc565b60075460ff16156110ed5760405163d93c066560e01b815260040160405180910390fd5b6040516001600160a01b0384811660248301528381166044830152606482018390526121f49186918216906323b872dd906084015b604051602081830303815290604052915060e01b6020820180516001600160e01b0383818316178352505050506126e2565b6001600160a01b03821661230b5760405163ec442f0560e01b81525f6004820152602401610cf0565b61167b5f83836125bc565b61231e61274e565b6007805460ff191690557f5db9ee0a495bf2e6ff9c91a7834c1ba4fdd244a5e8aa4e537bd38aeae4b073aa335b6040516001600160a01b03909116815260200160405180910390a1565b612370612257565b6007805460ff191660011790557f62e78cea01bee320cd4e420270b5ea74000d11b0c9f74754ebdbfc544b05a25861234b3390565b600580546001600160a01b038381166001600160a01b0319831681179093556040519116919082907f8be0079c531659141344cd1fd0a4f28419497f9722a3daafe3b4186f6b6457e0905f90a35050565b6040516001600160a01b0383811660248301526044820183905261214f91859182169063a9059cbb906064016122b0565b604080516001600160a01b038416602482015260448082018490528251808303909101815260649091019091526020810180516001600160e01b031663095ea7b360e01b1790526124788482612771565b6121f4576040516001600160a01b0384811660248301525f60448301526124ac91869182169063095ea7b3906064016122b0565b6121f484826126e2565b6001600160a01b0382166124df57604051634b637e8f60e11b81525f6004820152602401610cf0565b61167b825f836125bc565b6001600160a01b0384166125135760405163e602df0560e01b81525f6004820152602401610cf0565b6001600160a01b03831661253c57604051634a1406b160e11b81525f6004820152602401610cf0565b6001600160a01b038085165f90815260016020908152604080832093871683529290522082905580156121f457826001600160a01b0316846001600160a01b03167f8c5be1e5ebec7d5bd14f71427d1e84f3dd0314c0f7b2291e5b200ac8c7c3b925846040516125ae91815260200190565b60405180910390a350505050565b6001600160a01b0383166125e6578060025f8282546125db9190612aaf565b909155506126569050565b6001600160a01b0383165f90815260208190526040902054818110156126385760405163391434e360e21b81526001600160a01b03851660048201526024810182905260448101839052606401610cf0565b6001600160a01b0384165f9081526020819052604090209082900390555b6001600160a01b03821661267257600280548290039055612690565b6001600160a01b0382165f9081526020819052604090208054820190555b816001600160a01b0316836001600160a01b03167fddf252ad1be2c89b69c2b068fc378daa952ba7f163c4a11628f55a4df523b3ef836040516126d591815260200190565b60405180910390a3505050565b5f8060205f8451602086015f885af180612701576040513d5f823e3d81fd5b50505f513d91508115612718578060011415612725565b6001600160a01b0384163b155b156121f457604051635274afe760e01b81526001600160a01b0385166004820152602401610cf0565b60075460ff166110ed57604051638dfc202b60e01b815260040160405180910390fd5b5f805f8060205f8651602088015f8a5af192503d91505f5190508280156127b0575081156127a257806001146127b0565b5f866001600160a01b03163b115b9695505050505050565b602081525f82518060208401528060208501604085015e5f604082850101526040601f19601f83011684010191505092915050565b80356001600160a01b0381168114612805575f80fd5b919050565b5f806040838503121561281b575f80fd5b612824836127ef565b915060208301358015158114612838575f80fd5b809150509250929050565b5f8060408385031215612854575f80fd5b61285d836127ef565b946020939093013593505050565b602080825282518282018190525f918401906040840190835b818110156128ab5783516001600160a01b0316835260209384019390920191600101612884565b509095945050505050565b5f602082840312156128c6575f80fd5b610e8e826127ef565b5f805f805f608086880312156128e3575f80fd5b6128ec866127ef565b94506128fa602087016127ef565b935060408601359250606086013567ffffffffffffffff81111561291c575f80fd5b8601601f8101881361292c575f80fd5b803567ffffffffffffffff811115612942575f80fd5b886020828401011115612953575f80fd5b959894975092955050506020019190565b5f805f60608486031215612976575f80fd5b61297f846127ef565b925061298d602085016127ef565b929592945050506040919091013590565b5f602082840312156129ae575f80fd5b5035919050565b5f80604083850312156129c6575f80fd5b823591506129d6602084016127ef565b90509250929050565b5f805f606084860312156129f1575f80fd5b8335925061298d602085016127ef565b5f8060408385031215612a12575f80fd5b612a1b836127ef565b91506129d6602084016127ef565b600181811c90821680612a3d57607f821691505b602082108103610f6d57634e487b7160e01b5f52602260045260245ffd5b634e487b7160e01b5f52603260045260245ffd5b634e487b7160e01b5f52601160045260245ffd5b5f60018201612a9457612a94612a6f565b5060010190565b634e487b7160e01b5f52604160045260245ffd5b8082018082111561099257610992612a6f565b5f60208284031215612ad2575f80fd5b5051919050565b818382375f9101908152919050565b8181038181111561099257610992612a6f565b808202811582820484141761099257610992612a6f565b5f82612b2c57634e487b7160e01b5f52601260045260245ffd5b50049056fea26469706673582212206d7807d249733d23e82e8adbaa8e5536dff498aa4fb3c1dea1dd01369ddc89ad64736f6c634300081a0033","linkReferences":{}},"methodIdentifiers":{"BASIS_POINTS()":"e1f1c4a7","FLOW_CHAIN_ID()":"4fc66565","MAX_ASSETS()":"76b1d08f","MIN_DEPOSIT()":"e1e158a5","addAsset(address,uint256)":"66a6a4bd","addChainVault(uint256,address)":"58c1e404","agentWallet()":"3f6dfdbc","allowance(address,address)":"dd62ed3e","approve(address,uint256)":"095ea7b3","assetIndex(address)":"14526ea2","assets(uint256)":"cf35bdd0","authorizedAgents(address)":"efd76065","balanceOf(address)":"70a08231","chainVaults(uint256)":"94665f33","decimals()":"313ce567","deposit(address,uint256)":"47e7ef24","emergencyPause()":"51858e27","emergencyRecoverToken(address,uint256)":"79020194","emergencyUnpause()":"4a4e3bd5","getActiveAssets()":"0fd8aee8","getAsset(address)":"30b8b2c6","getNetAssetValue()":"6639a81d","getTotalTargetWeight()":"1ec747c9","getTotalValue()":"caa648b4","lastRebalanceTime()":"d9ca21d5","moveFundsToProtocol(address,address,uint256,bytes)":"8d3c5599","name()":"06fdde03","owner()":"8da5cb5b","paused()":"5c975abb","removeAsset(address)":"4a5e42b1","renounceOwnership()":"715018a6","retrieveFundsFromProtocol(address,address,uint256,bytes)":"206d5f8b","setAgentAuthorization(address,bool)":"0911e864","setAgentWallet(address)":"aea57ee7","supportedChains(uint256)":"548d496f","supportedTokens(address)":"68c4ac26","symbol()":"95d89b41","totalSupply()":"18160ddd","totalValueLocked()":"ec18154e","transfer(address,uint256)":"a9059cbb","transferFrom(address,address,uint256)":"23b872dd","transferOwnership(address)":"f2fde38b","transferToChain(uint256,address,uint256)":"c4dfd645","updateAssetBalance(address)":"81106407","withdraw(uint256,address,uint256)":"e63697c8"},"id":37}