{"abi":[{"type":"constructor","inputs":[{"name":"owner","type":"address","internalType":"address"}],"stateMutability":"nonpayable"},{"type":"receive","stateMutability":"payable"},{"type":"function","name":"allowance","inputs":[{"name":"owner","type":"address","internalType":"address"},{"name":"spender","type":"address","internalType":"address"}],"outputs":[{"name":"","type":"uint256","internalType":"uint256"}],"stateMutability":"view"},{"type":"function","name":"approve","inputs":[{"name":"spender","type":"address","internalType":"address"},{"name":"value","type":"uint256","internalType":"uint256"}],"outputs":[{"name":"","type":"bool","internalType":"bool"}],"stateMutability":"nonpayable"},{"type":"function","name":"balanceOf","inputs":[{"name":"account","type":"address","internalType":"address"}],"outputs":[{"name":"","type":"uint256","internalType":"uint256"}],"stateMutability":"view"},{"type":"function","name":"decimals","inputs":[],"outputs":[{"name":"","type":"uint8","internalType":"uint8"}],"stateMutability":"view"},{"type":"function","name":"deposit","inputs":[],"outputs":[],"stateMutability":"payable"},{"type":"function","name":"faucet","inputs":[],"outputs":[],"stateMutability":"nonpayable"},{"type":"function","name":"mint","inputs":[{"name":"to","type":"address","internalType":"address"},{"name":"amount","type":"uint256","internalType":"uint256"}],"outputs":[],"stateMutability":"nonpayable"},{"type":"function","name":"name","inputs":[],"outputs":[{"name":"","type":"string","internalType":"string"}],"stateMutability":"view"},{"type":"function","name":"owner","inputs":[],"outputs":[{"name":"","type":"address","internalType":"address"}],"stateMutability":"view"},{"type":"function","name":"renounceOwnership","inputs":[],"outputs":[],"stateMutability":"nonpayable"},{"type":"function","name":"symbol","inputs":[],"outputs":[{"name":"","type":"string","internalType":"string"}],"stateMutability":"view"},{"type":"function","name":"totalSupply","inputs":[],"outputs":[{"name":"","type":"uint256","internalType":"uint256"}],"stateMutability":"view"},{"type":"function","name":"transfer","inputs":[{"name":"to","type":"address","internalType":"address"},{"name":"value","type":"uint256","internalType":"uint256"}],"outputs":[{"name":"","type":"bool","internalType":"bool"}],"stateMutability":"nonpayable"},{"type":"function","name":"transferFrom","inputs":[{"name":"from","type":"address","internalType":"address"},{"name":"to","type":"address","internalType":"address"},{"name":"value","type":"uint256","internalType":"uint256"}],"outputs":[{"name":"","type":"bool","internalType":"bool"}],"stateMutability":"nonpayable"},{"type":"function","name":"transferOwnership","inputs":[{"name":"newOwner","type":"address","internalType":"address"}],"outputs":[],"stateMutability":"nonpayable"},{"type":"function","name":"withdraw","inputs":[{"name":"amount","type":"uint256","internalType":"uint256"}],"outputs":[],"stateMutability":"nonpayable"},{"type":"event","name":"Approval","inputs":[{"name":"owner","type":"address","indexed":true,"internalType":"address"},{"name":"spender","type":"address","indexed":true,"internalType":"address"},{"name":"value","type":"uint256","indexed":false,"internalType":"uint256"}],"anonymous":false},{"type":"event","name":"OwnershipTransferred","inputs":[{"name":"previousOwner","type":"address","indexed":true,"internalType":"address"},{"name":"newOwner","type":"address","indexed":true,"internalType":"address"}],"anonymous":false},{"type":"event","name":"Transfer","inputs":[{"name":"from","type":"address","indexed":true,"internalType":"address"},{"name":"to","type":"address","indexed":true,"internalType":"address"},{"name":"value","type":"uint256","indexed":false,"internalType":"uint256"}],"anonymous":false},{"type":"error","name":"ERC20InsufficientAllowance","inputs":[{"name":"spender","type":"address","internalType":"address"},{"name":"allowance","type":"uint256","internalType":"uint256"},{"name":"needed","type":"uint256","internalType":"uint256"}]},{"type":"error","name":"ERC20InsufficientBalance","inputs":[{"name":"sender","type":"address","internalType":"address"},{"name":"balance","type":"uint256","internalType":"uint256"},{"name":"needed","type":"uint256","internalType":"uint256"}]},{"type":"error","name":"ERC20InvalidApprover","inputs":[{"name":"approver","type":"address","internalType":"address"}]},{"type":"error","name":"ERC20InvalidReceiver","inputs":[{"name":"receiver","type":"address","internalType":"address"}]},{"type":"error","name":"ERC20InvalidSender","inputs":[{"name":"sender","type":"address","internalType":"address"}]},{"type":"error","name":"ERC20InvalidSpender","inputs":[{"name":"spender","type":"address","internalType":"address"}]},{"type":"error","name":"OwnableInvalidOwner","inputs":[{"name":"owner","type":"address","internalType":"address"}]},{"type":"error","name":"OwnableUnauthorizedAccount","inputs":[{"name":"account","type":"address","internalType":"address"}]}],"bytecode":{"object":"0x608060405234801561000f575f80fd5b50604051610ec3380380610ec383398101604081905261002e91610292565b806040518060400160405280600c81526020016b5772617070656420466c6f7760a01b8152506040518060400160405280600581526020016457464c4f5760d81b81525081600390816100819190610357565b50600461008e8282610357565b5050506001600160a01b0381166100bf57604051631e4fbdf760e01b81525f60048201526024015b60405180910390fd5b6100c8816100e3565b506100dd8169d3c21bcecceda1000000610134565b50610436565b600580546001600160a01b038381166001600160a01b0319831681179093556040519116919082907f8be0079c531659141344cd1fd0a4f28419497f9722a3daafe3b4186f6b6457e0905f90a35050565b6001600160a01b03821661015d5760405163ec442f0560e01b81525f60048201526024016100b6565b6101685f838361016c565b5050565b6001600160a01b038316610196578060025f82825461018b9190610411565b909155506102069050565b6001600160a01b0383165f90815260208190526040902054818110156101e85760405163391434e360e21b81526001600160a01b038516600482015260248101829052604481018390526064016100b6565b6001600160a01b0384165f9081526020819052604090209082900390555b6001600160a01b03821661022257600280548290039055610240565b6001600160a01b0382165f9081526020819052604090208054820190555b816001600160a01b0316836001600160a01b03167fddf252ad1be2c89b69c2b068fc378daa952ba7f163c4a11628f55a4df523b3ef8360405161028591815260200190565b60405180910390a3505050565b5f602082840312156102a2575f80fd5b81516001600160a01b03811681146102b8575f80fd5b9392505050565b634e487b7160e01b5f52604160045260245ffd5b600181811c908216806102e757607f821691505b60208210810361030557634e487b7160e01b5f52602260045260245ffd5b50919050565b601f82111561035257805f5260205f20601f840160051c810160208510156103305750805b601f840160051c820191505b8181101561034f575f815560010161033c565b50505b505050565b81516001600160401b03811115610370576103706102bf565b6103848161037e84546102d3565b8461030b565b6020601f8211600181146103b6575f831561039f5750848201515b5f19600385901b1c1916600184901b17845561034f565b5f84815260208120601f198516915b828110156103e557878501518255602094850194600190920191016103c5565b508482101561040257868401515f19600387901b60f8161c191681555b50505050600190811b01905550565b8082018082111561043057634e487b7160e01b5f52601160045260245ffd5b92915050565b610a80806104435f395ff3fe6080604052600436106100f2575f3560e01c8063715018a611610087578063d0e30db011610057578063d0e30db014610298578063dd62ed3e146102a0578063de5f72fd146102e4578063f2fde38b146102f8575f80fd5b8063715018a61461022a5780638da5cb5b1461023e57806395d89b4114610265578063a9059cbb14610279575f80fd5b80632e1a7d4d116100c25780632e1a7d4d1461019d578063313ce567146101bc57806340c10f19146101d757806370a08231146101f6575f80fd5b806306fdde0314610107578063095ea7b31461013157806318160ddd1461016057806323b872dd1461017e575f80fd5b36610103576101013334610317565b005b5f80fd5b348015610112575f80fd5b5061011b610354565b60405161012891906108d9565b60405180910390f35b34801561013c575f80fd5b5061015061014b366004610929565b6103e4565b6040519015158152602001610128565b34801561016b575f80fd5b506002545b604051908152602001610128565b348015610189575f80fd5b50610150610198366004610951565b6103fd565b3480156101a8575f80fd5b506101016101b736600461098b565b610420565b3480156101c7575f80fd5b5060405160128152602001610128565b3480156101e2575f80fd5b506101016101f1366004610929565b6104a9565b348015610201575f80fd5b506101706102103660046109a2565b6001600160a01b03165f9081526020819052604090205490565b348015610235575f80fd5b506101016104bb565b348015610249575f80fd5b506005546040516001600160a01b039091168152602001610128565b348015610270575f80fd5b5061011b6104ce565b348015610284575f80fd5b50610150610293366004610929565b6104dd565b6101016104ea565b3480156102ab575f80fd5b506101706102ba3660046109c2565b6001600160a01b039182165f90815260016020908152604080832093909416825291909152205490565b3480156102ef575f80fd5b506101016104f4565b348015610303575f80fd5b506101016103123660046109a2565b610507565b6001600160a01b0382166103455760405163ec442f0560e01b81525f60048201526024015b60405180910390fd5b6103505f8383610544565b5050565b606060038054610363906109f3565b80601f016020809104026020016040519081016040528092919081815260200182805461038f906109f3565b80156103da5780601f106103b1576101008083540402835291602001916103da565b820191905f5260205f20905b8154815290600101906020018083116103bd57829003601f168201915b5050505050905090565b5f336103f181858561066a565b60019150505b92915050565b5f3361040a85828561067c565b6104158585856106f8565b506001949350505050565b335f908152602081905260409020548111156104755760405162461bcd60e51b8152602060048201526014602482015273496e73756666696369656e742062616c616e636560601b604482015260640161033c565b61047f3382610755565b604051339082156108fc029083905f818181858888f19350505050158015610350573d5f803e3d5ffd5b6104b1610789565b6103508282610317565b6104c3610789565b6104cc5f6107b6565b565b606060048054610363906109f3565b5f336103f18185856106f8565b6104cc3334610317565b6104cc33683635c9adc5dea00000610317565b61050f610789565b6001600160a01b03811661053857604051631e4fbdf760e01b81525f600482015260240161033c565b610541816107b6565b50565b6001600160a01b03831661056e578060025f8282546105639190610a2b565b909155506105de9050565b6001600160a01b0383165f90815260208190526040902054818110156105c05760405163391434e360e21b81526001600160a01b0385166004820152602481018290526044810183905260640161033c565b6001600160a01b0384165f9081526020819052604090209082900390555b6001600160a01b0382166105fa57600280548290039055610618565b6001600160a01b0382165f9081526020819052604090208054820190555b816001600160a01b0316836001600160a01b03167fddf252ad1be2c89b69c2b068fc378daa952ba7f163c4a11628f55a4df523b3ef8360405161065d91815260200190565b60405180910390a3505050565b6106778383836001610807565b505050565b6001600160a01b038381165f908152600160209081526040808320938616835292905220545f198110156106f257818110156106e457604051637dc7a0d960e11b81526001600160a01b0384166004820152602481018290526044810183905260640161033c565b6106f284848484035f610807565b50505050565b6001600160a01b03831661072157604051634b637e8f60e11b81525f600482015260240161033c565b6001600160a01b03821661074a5760405163ec442f0560e01b81525f600482015260240161033c565b610677838383610544565b6001600160a01b03821661077e57604051634b637e8f60e11b81525f600482015260240161033c565b610350825f83610544565b6005546001600160a01b031633146104cc5760405163118cdaa760e01b815233600482015260240161033c565b600580546001600160a01b038381166001600160a01b0319831681179093556040519116919082907f8be0079c531659141344cd1fd0a4f28419497f9722a3daafe3b4186f6b6457e0905f90a35050565b6001600160a01b0384166108305760405163e602df0560e01b81525f600482015260240161033c565b6001600160a01b03831661085957604051634a1406b160e11b81525f600482015260240161033c565b6001600160a01b038085165f90815260016020908152604080832093871683529290522082905580156106f257826001600160a01b0316846001600160a01b03167f8c5be1e5ebec7d5bd14f71427d1e84f3dd0314c0f7b2291e5b200ac8c7c3b925846040516108cb91815260200190565b60405180910390a350505050565b602081525f82518060208401528060208501604085015e5f604082850101526040601f19601f83011684010191505092915050565b80356001600160a01b0381168114610924575f80fd5b919050565b5f806040838503121561093a575f80fd5b6109438361090e565b946020939093013593505050565b5f805f60608486031215610963575f80fd5b61096c8461090e565b925061097a6020850161090e565b929592945050506040919091013590565b5f6020828403121561099b575f80fd5b5035919050565b5f602082840312156109b2575f80fd5b6109bb8261090e565b9392505050565b5f80604083850312156109d3575f80fd5b6109dc8361090e565b91506109ea6020840161090e565b90509250929050565b600181811c90821680610a0757607f821691505b602082108103610a2557634e487b7160e01b5f52602260045260245ffd5b50919050565b808201808211156103f757634e487b7160e01b5f52601160045260245ffdfea26469706673582212208c0d4ed6f6075df3f70fdd2f761361c85e8b5ee8b1ee16d9c098b213ebd4588664736f6c634300081a0033","linkReferences":{}},"methodIdentifiers":{"allowance(address,address)":"dd62ed3e","approve(address,uint256)":"095ea7b3","balanceOf(address)":"70a08231","decimals()":"313ce567","deposit()":"d0e30db0","faucet()":"de5f72fd","mint(address,uint256)":"40c10f19","name()":"06fdde03","owner()":"8da5cb5b","renounceOwnership()":"715018a6","symbol()":"95d89b41","totalSupply()":"18160ddd","transfer(address,uint256)":"a9059cbb","transferFrom(address,address,uint256)":"23b872dd","transferOwnership(address)":"f2fde38b","withdraw(uint256)":"2e1a7d4d"},"id":38}